:020000040800F2
:10000000D80F0020D5000008251E0008091C000894
:1000100000000000000000000000000000000000E0
:1000200000000000000000000000000003220008A3
:100030000000000000000000012200080522000866
:10004000E7000008E7000008E7000008E7000008F4
:10005000E7000008B1030008E7000008E700000817
:10006000E7000008E7000008E7000008E7000008D4
:10007000E7000008E7000008E7000008E7000008C4
:10008000E7000008E7000008E7000008E7000008B4
:10009000E7000008E7000008E7000008E7000008A4
:1000A000E7000008E7000008E7000008E700000894
:1000B000E7000008E7000008E700000831450008F5
:1000C0000348854600F0A6F8004800471947000895
:1000D000D80F00200448804704480047FEE7FEE7A9
:1000E000FEE7FEE7FEE7FEE799220008C1000008F0
:1000F00030B50B46014600202022012409E00D46C0
:10010000D5409D4205D31D469540491B2546954047
:1001100040191546521E002DF1DC30BDF0B51FB45C
:100120000646002082B005464024019100901BE065
:10013000019922460F46304600F020F8049A059BAC
:10014000801A994110D310461946224600F052F801
:10015000361A8F410197224601200021009F00F0AE
:1001600049F838184D4100902046641E0028DFDC15
:10017000019B00982946324607B0F0BD10B5202AF1
:1001800004DB0846203AD040002110BD0B46D34086
:10019000D0402024A21A91400843194610BD0346BE
:1001A0000B439B0703D009E008C9121F08C0042AAB
:1001B000FAD203E00B780370401C491C521EF9D29E
:1001C0007047D2B201E00270401C491EFBD270475A
:1001D0000022F6E710B513460A4604461946FFF713
:1001E000F0FF204610BD421C0178401C0029FBD1C5
:1001F000801A704710B5202A04DB0146203A91404E
:10020000002010BD914020239C1A0346E34019436F
:10021000904010BD064C0125064E05E0E36807CC72
:100220002B430C3C98471034B442F7D3FFF74CFFF4
:10023000184800083848000870B58C180578401C2C
:100240006B075B0F01D10378401C2A1106D102789D
:10025000401C03E006780E70401C491C5B1EF9D15F
:100260002B0705D40023521E0DD40B70491CFAE74E
:100270000378401CCB1A921C03E01D780D70491CBA
:100280005B1C521EF9D5A142D8D3002070BD0000DE
:1002900010B50346042B16D008DC002B0FD0012B21
:1002A0000ED0022B0DD0032B3ED10BE0202B0BD018
:1002B000212B1CD0222B35D0232B35D133E034E039
:1002C00033E032E031E030E008784C78240220431B
:1002D0008C7824042043CC7824062043144C2060DE
:1002E00008792071487960718879A0711DE0104803
:1002F000007808700E4800880004000E48700C4812
:1003000000680002000E887009480068000EC8707E
:100310000748007908710648407948710448807997
:10032000887102E001E000E000BF00BF002010BDC6
:10033000580000200020704710B5002204490548ED
:1003400002F023F90449034802F015F9002010BD1A
:1003500000070020FC010020C006002070B5044604
:100360000D46044802F0D9F82946204604F01AFA4E
:10037000002070BDFC010020F8B504460D460026A3
:100380000948876B85208000C059002801D00120D2
:10039000F8BD2A462146054802F0F7F8034802F066
:1003A0008BF906463046F3E77C040020FC01002070
:1003B00010B5012000F04AF910BD704770B509482A
:1003C000C46A056B466BA419002C0AD008220649A2
:1003D000204601F01BFC042203491031284601F09D
:1003E00015FC70BD80F7FF1F3600002070B5044675
:1003F000002C01D1012070BD2020005D002802D119
:10040000204600F0B1F82068006802218843216886
:10041000086000F037FA05460EE000F033FA401BA2
:100420000A2809D9606A012149040843606205214C
:10043000202001550120DEE72068406802210840A5
:100440000028EAD12068006801210843216808607B
:1004500000F018FA05460EE000F014FA401B0A28D6
:1004600009D9606A012149040843606205212020FE
:1004700001550120BFE720684068C007C00F002871
:10048000EAD0207E012806D1206800688021084338
:100490002168086005E020680068802188432168A1
:1004A0000860607E012806D120680068402108436A
:1004B0002168086005E020680068402188432168C1
:1004C0000860A07E012806D120680068202108432A
:1004D0002168086005E020680068202188432168C1
:1004E0000860E07E012806D120680068102188435A
:1004F0002168086005E02068006810210843216831
:100500000860207F012806D1206800680821084380
:100510002168086005E02068006808218843216898
:100520000860607F012806D1206800680421084324
:100530002168086005E0206800680421884321687C
:100540000860E168A06808432169084361690843BD
:100550006168491E08432168C8610020606201216A
:1005600020200155002046E710B586B0044614212E
:1005700001A8FFF72DFE1A49206888422DD100BF3F
:100580001848C0690121490608431649C861084650
:10059000C069012149060840009000BF00BF00BFAC
:1005A00010484069C91108430E494861084640692E
:1005B000012189040840009000BF00BF0320000211
:1005C0000190022002900020039003200490042058
:1005D000059001A9044800F049F806B010BD0000DC
:1005E00000640040001002400004004870B504465A
:1005F00000F048F906462546681C002802D0054848
:1006000000782D1800BF00F03DF9801BA842FAD3F6
:1006100070BD0000780000207FB50446012C10D189
:10062000084B0FCB6D460FC56102074800F01AF961
:100630006846FFF7D8FD85B229466846FFF79CFE5D
:1006400000BF7FBDF04700080008004810B5044611
:10065000054840692040002804D0034844612046F2
:10066000FFF7DAFF10BD00000004014078B5034633
:100670000022E2E0012696400C683440002C7DD038
:100680004D68022D02D04D68122D15D1D508AE004F
:100690001D462035A8595507EE0E0F25B5400646D4
:1006A000AE4330465607F60E0D69B5402843D508CF
:1006B000AD001E4620367051186856000325B5401F
:1006C0000646AE4330460D79AD07AD0F5600B54036
:1006D000284318604D68012D08D04D68022D05D0C3
:1006E0004D68112D02D04D68122D18D19868560012
:1006F0000325B5400646AE4330465600CD68B540AA
:10070000284398605868012595400646AE43304618
:1007100010264D6835402D09954028435860D8680B
:1007200056000325B5400646AE43304656008D6858
:10073000B5402843D860012636074D683540B5429C
:100740007AD100BF404DAD69012635433E4EB561BB
:100750003546AD69ED07ED0F009500BF00BF3B4D7D
:100760009608B600A85995072E0F0F25B5400646E6
:10077000AE4330460925ED06AB4200E05CE001D116
:10078000002514E0324DAB4201D101250FE0314D7F
:10079000AB4201D102250AE02F4DAB4201D1032526
:1007A00005E02E4DAB4201D1042500E0052596075A
:1007B000360FB5402843254D9608B600A851284D60
:1007C00028680546A5432846012636044D6835406D
:1007D000B54202D1054625432846214D2860686868
:1007E0000546A5432846012676044D683540B542A6
:1007F00002D1054625432846194D6860A86805467C
:10080000A5432846012636054D683540B54202D13C
:10081000054625432846124DA860E8680546A543CD
:100820002846012676054D683540B54202D1054679
:10083000254328460A4DE860521C0D68D540002D1E
:1008400000D017E778BD000000100240080001400A
:100850000004004800080048000C00480010004850
:100860000004014042690A40002A02D00A04826161
:1008700000E081617047002A01D0816100E081625F
:1008800070470000014800687047000070000020B9
:100890000348006803490978401801490860704717
:1008A000700000207800002010B506480068102174
:1008B000084304490860002000F006F800F02EF814
:1008C000002010BD0020024070B504461048017899
:1008D0007D20C000FFF70CFC064631460D4800683D
:1008E000FFF706FC054601F073F9002801D001204E
:1008F00070BD042C07D200222146501E00F03CF8A7
:100900000548046001E00120F2E70020F0E7000064
:10091000780000207C0000207400002008B500BF93
:100920000D488069012108430B49886108468069A8
:10093000C007C00F009000BF00BF00BF0846C069DD
:10094000090408430449C8610846C069090408400D
:10095000009000BF00BF08BD001002400146002902
:1009600005DBCB06DB0E01229A40024B1A6000BF6A
:100970007047000000E100E070B504460D461646E1
:100980002946204603F04CFE70BD01460A6801234B
:100990004D20C0004350002013235B01CB1818707A
:1009A0005420805A01231843542398525420805ACB
:1009B000022318435423985200207047704770B5A3
:1009C00005460C4680202040802805D16007060E91
:1009D00028462830311804E066012846FF302930C7
:1009E0003118002A03D100200873CB8004E00120D5
:1009F00008730B81180C4881002070BD70B5044647
:100A00000D466B012146283159184A6927210901F1
:100A10000859294602F0B3F970BD70B504460D4679
:100A20006B012146FF31293159184A6927210901F3
:100A30000859294602F03EFA70BD70B504460E46CC
:100A400080203040802807D17007010E20462830D2
:100A50000D180120687007E07007010E2046FF3076
:100A600029300D18002068707007400F287000BFF3
:100A7000112040012018007A012801D1022070BD08
:100A80000120112149016118087200BF2946206820
:100A900003F03AF900BF00201121490161180872E2
:100AA00000BF00BFEBE770B504460E463007000FED
:100AB0006168884201D9012070BD802030408028C3
:100AC00007D17007010E204628300D1801206870EC
:100AD00007E07007010E2046FF3029300D18002076
:100AE00068700020A8707007400F287000BF1120A8
:100AF00040012018007A012801D10220DCE7012002
:100B0000112149016118087200BF2946206803F0CD
:100B100057FA00BF0020112149016118087200BF77
:100B200000BFC9E702464807030E1046FF302930D0
:100B30001818C0697047FFB581B005460E461F46BC
:100B40000020009080203040802807D17007010EDF
:100B5000284628300C180120607007E07007010E4D
:100B60002846FF3029300C18002060707007400FB5
:100B7000207003982061E7706078002801D0207809
:100B8000E081022F01D10020207100BF112040011F
:100B90002818007A012802D1022005B0F0BD0120FA
:100BA000112149016918087200BF2146286802F026
:100BB0006BFE00BF0020112149016918087200BFB7
:100BC0000098EAE7FFB581B005460E461746700764
:100BD000010E2846FF3029300C1867610498A06187
:100BE0000020E06160707007400F20707007400FB8
:100BF000002804D12146286803F07CFA03E021464E
:100C0000286803F077FA002005B0F0BD70B50446FF
:100C10000D466807400F6168884201D9012070BD08
:100C200080202840802807D16807010E2046283000
:100C30000E180120707006E069012046FF3029304F
:100C40000E18002070700120B0706807400F3070DF
:100C500000BF112040012018007A012801D1022094
:100C6000DDE70120112149016118087200BF3146FA
:100C7000206803F011FA6807400F002805D12321EE
:100C800009016118206803F097F900BF00201121C5
:100C900049016118087200BF00BFC0E7FFB581B00D
:100CA00005460E4617467007010E284628300C18D8
:100CB00067610498A0610020E06101206070700706
:100CC000400F20707007400F002804D1214628688B
:100CD00003F010FA03E02146286803F00BFA002025
:100CE00005B0F0BD10B50446206803F029FC0121D1
:100CF000C9030840884202D1204601F095F82068D7
:100D000003F01EFC01218902084088420DD12068B1
:100D1000403080888843216840318880204600F038
:100D20008FF90021204600F0BDF9206803F008FC8F
:100D3000012189030840884206D12068403080881C
:100D40008843216840318880206803F0F9FB012145
:100D500049030840884206D1206840308088884393
:100D6000216840318880206803F0EAFB01210903F3
:100D7000084088422BD120684030008858490840FC
:100D80002168403108802068403000885449091F9C
:100D90000840216840310880132040012018007865
:100DA000012808D100201321490161180870002191
:100DB0002046FFF703FE204600F056F92068403039
:100DC0008088012109038843216840318880206898
:100DD00003F0B6FB0121C9020840884224D12068F3
:100DE000403000880821084321684031088020688D
:100DF000403080880121C9028843216840318880C1
:100E00002068403000880421084321684031088070
:100E1000206803F095FB012109030840000B00281E
:100E200002D1204600F08AF9206803F089FB802176
:100E30000840802832D1206840308088884321686B
:100E4000403188801320400120180078002822D1EA
:100E50002068403000880421084321684031088020
:100E6000206840300088082108432168403108800C
:100E70000120132149016118087020684030808AE0
:100E8000F02108408108992080000151012120466D
:100E9000FFF794FD02E0204600F050F9206803F0CF
:100EA0004FFB012149020840884209D120684030A7
:100EB00080888843216840318880204600F0EAF825
:100EC000206803F03DFBFF2101310840884206D134
:100ED000206840308088884321684031888010BD78
:100EE000FBFF000030B585B00446002C02D1012084
:100EF00005B030BD112040012018407A002806D1ED
:100F00001121490161180872204600F075F803208C
:100F10001121490161184872206803F041F8002549
:100F200023E001216A012046283010184170690130
:100F300020462830455469010818C58100216A01FE
:100F4000204628301018C1706A0120462830101839
:100F500001616A0120462830101841616A0120466B
:100F6000283010188161681CC5B26068A842D8D8C2
:100F7000002523E000216A012046FF3029301018A7
:100F8000417069012046FF302930455400216A0133
:100F90001018C1706A012046FF3029301018016115
:100FA0006A012046FF302930101841616A0120464D
:100FB000FF30293010188161681CC5B26068A842F2
:100FC000D8D81422214610316846FFF7E8F82046A9
:100FD0000FC802F0D5FF0021242001550120112166
:100FE000490161184872E069012802D12046FFF7E3
:100FF000CCFC00207CE7000038B504460E49206890
:10100000884217D100BF0D48C0690121C9050843B6
:101010000A49C8610846C0690121C9050840009015
:1010200000BF00BF002211461F20FFF7A5FC1F20B4
:10103000FFF794FC38BD0000005C00400010024047
:1010400070B504460125A068022801D0FFF7B5F964
:10105000272109010859294602F09DF82721090195
:10106000085902F036F870BD10B50446A069002892
:1010700007D007480069062188430549086101F047
:10108000C5F827210901085902F05CF810BD0000DD
:1010900000ED00E010B5044627210901085902F0CF
:1010A00062F810BD70B504460D4600BF1120400126
:1010B0002018007A012801D1022070BD01201121E1
:1010C00049016118087200BF24200555294620688F
:1010D00003F05AFA00BF002011214901611808727B
:1010E00000BF00BFE9E710B50446272109010859F0
:1010F00023210901611802F065F810BD10B50446FE
:1011000000BF112040012018007A012801D10220DF
:1011100010BD0120112149016118087200BF20682B
:1011200002F024FF206803F0F7F900BF002011212E
:1011300049016118087200BF00BFE9E710B5044615
:1011400027210901085902F0A7F8A069002805D055
:1011500003480069062108430149086110BD0000E9
:1011600000ED00E0F8B50446002600250121090441
:101170002068084088427AD100276048C069090386
:10118000084000280DD100BF5C48C06908435B4996
:10119000C8610846C06909040840009000BF00BF4C
:1011A000012757480068FF2101310840002816D167
:1011B00053480068084352490860FFF763FB06463E
:1011C00006E0FFF75FFB801B642801D90320F8BD10
:1011D0004B480068FF21013108400028F1D0474802
:1011E000006A0321090208400546002D2DD06068E1
:1011F0000840A84229D04148006A884305463F4834
:10120000006A0121090408433C4908620846006A53
:101210000121090488433949086208460562E80744
:10122000C00F002811D0FFF72DFB064607E0FFF79F
:1012300029FB801B3349884201D90320C7E72F4887
:10124000006A022108400028F1D02C48006A0321DE
:10125000090288436168084328490862012F05D1C3
:101260000846C069090488432449C86100BF207842
:10127000C007C00F002807D02048006B80088000FE
:10128000A16808431D49086302212068084002281C
:1012900008D11A48006B032109048843E168084318
:1012A00016490863202120680840202807D11348E8
:1012B000006B10218843216908431049086301210C
:1012C000490420680840884207D10C48006B8021FF
:1012D0008843A169084309490863012189022068FC
:1012E0000840884207D10548006B40218843616966
:1012F000084302490863002069E70000001002402B
:10130000007000408813000070B504460D46002CA4
:1013100001D1012070BD58480068C007C00FA84225
:101320000ED25548006840084000284352490860E2
:1013300008460068C007C00FA84201D00120E9E7B5
:10134000022120680840022814D1042120680840A6
:10135000042807D1494840680721090288434018FA
:101360004649486045484068F0218843A1680843E1
:10137000424948602078C007C00F002847D0606805
:10138000012808D13D48006801214904084000288F
:1013900021D10120BEE76068022808D137480068E3
:1013A000012149060840002815D10120B2E76068F4
:1013B000032808D13148406B012109040840002866
:1013C00009D10120A6E72D48006802210840002825
:1013D00001D101209EE729484068800880006168AB
:1013E000084326494860FFF74DFA064607E0FFF735
:1013F00049FA801B2249884201D903208AE71F4805
:1014000040680C210840616889008842EFD11A4881
:101410000068C007C00FA8420ED9174800684008EE
:10142000400028431449086008460068C007C00F00
:10143000A84201D001206DE704212068084004285B
:1014400008D10E484068072109028843E168084333
:101450000A49486000F01AF808494968F02211402A
:101460000909084A515CC840074908600020FFF795
:101470002BFA00204EE7000000200240001002403E
:1014800088130000FF4700087C000020F0B589B0F9
:1014900035A001460EC9C06805AC0EC4089036A040
:1014A00001460EC9C06801AC0EC40490002500249A
:1014B0000027002600200090334845680C20284073
:1014C000002849D0042804D0082805D00C2842D18F
:1014D0003EE02E48009042E00F2080042840800C1F
:1014E00005A90E5C2848C06A0007000F01A90C5C22
:1014F0000320C00328400121090488420AD1224662
:10150000002322481946FEF709FE314603F061F830
:1015100007461BE00320C00328400321C90388427B
:101520000AD1224600231A481946FEF7F7FD314634
:1015300003F04FF8074609E02246002313481946F6
:10154000FEF7ECFD314603F044F80746009706E04D
:101550000F48009003E000BF0C48009000BF00BFA0
:10156000009809B0F0BD0000020304050607080951
:101570000A0B0C0D0E0F10100102030405060708DC
:10158000090A0B0C0D0E0F100010024000127A0019
:10159000006CDC02FEB50446002C01D10120FEBD2A
:1015A0002078C007C00F002872D0FC4840680C218A
:1015B000084004280CD0F94840680840082813D196
:1015C000F6484068490308400121090488420BD1CC
:1015D000F248006801214904084000286BD0606887
:1015E000002868D10120DAE700BF6068012807D130
:1015F000EA480068012109040843E849086031E02D
:10160000606800280ED1E54800680121090488437C
:10161000E249086008460068012189048843DF49DF
:1016200008601FE0606805280ED1DC4800680121D1
:1016300089040843D9490860084600680121090463
:101640000843D64908600DE0D44800680121090428
:101650008843D2490860084600680121890488430C
:10166000CE49086000BF6068002812D0FFF70AF971
:10167000054606E0FFF706F9401B642801D9032060
:101680008DE7C64800680121490408400028F1D0D0
:1016900011E0FFF7F7F8054606E0FFF7F3F8401B07
:1016A000642801D903207AE7BC4800680121490475
:1016B00008400028F1D1022120680840022862D1A8
:1016C000B64840680C21084000280CD0B348406858
:1016D000084008281CD1B14840684903084001214E
:1016E000C903884214D1AD4800680221084000288F
:1016F00004D0E068012801D0012050E7A748006825
:10170000F82188432169C9000843A44908603AE0E8
:10171000E068002820D0A1480068012108439F49C3
:101720000860FFF7AFF8054606E0FFF7ABF8401B8F
:10173000022801D9032032E79848006802210840B6
:101740000028F2D095480068F82188432169C90033
:1017500008439249086016E090480068400840003D
:101760008E490860FFF78EF8054606E0FFF78AF815
:10177000401B022801D9032011E788480068022194
:1017800008400028F2D1082120680840082831D1FB
:10179000E069002817D08148406A012108437F4949
:1017A0004862FFF76FF8054606E0FFF76BF8401B4D
:1017B000022801D90320F2E67848406A0221084055
:1017C0000028F2D016E07548406A4008400073498E
:1017D0004862FFF757F8054606E0FFF753F8401B4D
:1017E000022801D90320DAE66C48406A0221084049
:1017F0000028F2D1042120680840042872D100207A
:1018000001906648C0698906084000280ED100BFD3
:101810006248C06908436149C8610846C069090453
:101820000840009000BF00BF012001905C480068A4
:10183000FF2101310840002816D1594800680843AB
:1018400057490860FFF71EF8054606E0FFF71AF84B
:10185000401B642801D90320A1E651480068FF21FC
:10186000013108400028F1D000BFA068012806D14E
:101870004A48006A01210843484908622AE0A068F2
:1018800000280BD14548006A4108490043480162DD
:10189000006A04218843414908621BE0A0680528CA
:1018A0000CD13E48006A042108433C4908620846BE
:1018B000006A01210843394908620BE03748006A91
:1018C00040084000354908620846006A0421884300
:1018D0003249086200BFA068002813D0FEF7D2FF8B
:1018E000054608E02BE0FEF7CDFF401B2D4988425E
:1018F00001D9032053E62948006A02210840002844
:10190000F1D011E0FEF7BEFF054607E0FEF7BAFF93
:10191000411B2448814201D9032040E61F48006A48
:10192000022108400028F1D10198012806D11B4866
:10193000C0690121090788431849C86100BF102107
:101940002068084010285FD1606901282CD1134815
:10195000406B04210843114948630846406B01214C
:1019600008430E494863FEF78DFF054606E0FEF783
:1019700089FF401B022801D9032010E60748406B6D
:10198000022108400028F2D00448406BF821884327
:10199000A169C90008430149486335E000100240CD
:1019A00000700040881300006069401D00280FD1BE
:1019B0008648406B04218843844948630846406B4D
:1019C000F8218843A169C9000843804948631BE0A6
:1019D0007E48406B042108437C4948630846406BBD
:1019E000400840004863FEF74DFF054606E0FEF75D
:1019F00049FF401B022801D90320D0E57348406B02
:101A0000022108400028F2D1202120680840202827
:101A100052D16E4840680C2108400C280AD06B480F
:101A200040680840082811D16848406849030840C8
:101A300088420BD16548406B012109040840002809
:101A40003AD0206A012837D00120A8E5206A002872
:101A500019D05E48406B0121090408435B49486383
:101A6000FEF710FF054606E0FEF70CFF401B0228BC
:101A700001D9032093E55548406B01210904084032
:101A80000028F1D018E05148406B01210904884337
:101A90004E494863FEF7F6FE054606E0FEF7F2FE05
:101AA000401B022801D9032079E54848406B0121F9
:101AB000090408400028F1D1606A00284FD043484B
:101AC00040680C210840082864D0606A022847D189
:101AD0003E4800680121090688433C490860FEF73A
:101AE000D1FE054606E0FEF7CDFE401B022801D9D7
:101AF000032054E5354800680121490608400028C4
:101B0000F1D100BF3148C06A00090001216B0843D0
:101B10002E49C862A16AE06A08432C4949687B22C1
:101B2000D203914308432949486000BF0846006832
:101B300001210906084325490860FEF7A3FE054672
:101B400006E0FEF79FFE401B022801D9032026E590
:101B50001E4800680121490608400028F1D033E002
:101B60001A48006801210906884318490860FEF7F1
:101B700089FE054606E0FEF785FE401B022801D9D6
:101B800003200CE51148006801214906084000289F
:101B9000F1D119E0606A012800D100E50B484668E0
:101BA000C76A0320C0033040A16A88420AD13907BE
:101BB000090F206B814205D10F2080043040E16A7B
:101BC000884201D00120EAE40020E8E4001002404D
:101BD00070B504462546681E0949884201D901208E
:101BE0000CE0681E074948610321081F02F018FD38
:101BF00000200449886107200861002070BD0000B2
:101C0000FFFFFF0000E000E000BFFEE730B50B463D
:101C1000002100BF12E0040F0A2C04D2040F30345C
:101C20004D005C5503E0040F37344D005C55000156
:101C300000254C00641C1D554C1CE1B29142EADBAE
:101C400030BD000010B50C480C49086010204860F9
:101C500000210A488160C1600161416101764176DD
:101C60008176C17601774177FEF7C0FB002801D06D
:101C7000FEF7A3FB10BD00000064004094010020AB
:101C800000B587B0142102A8FEF7A2FA00BF4A48A7
:101C900040690121C9040843474948610846406931
:101CA0000121C9040840019000BF00BF00BF4248A5
:101CB000406989100843404948610846406901214C
:101CC00049040840019000BF00BF00BF3A48406986
:101CD00049000843384948610846406901218904A0
:101CE0000840019000BF00BF002234493448FEF78D
:101CF000C2FD32480290012003900020049005901C
:101D000002A92F48FEF7B2FC062002902D4803904E
:101D10000020049002A92A48FEF7A8FC01200290A6
:101D2000294803900020049002A90920C006FEF76C
:101D30009DFCCC200290022003900020049005908E
:101D40000320069002A90920C006FEF78FFC03209D
:101D5000029002200390002004900590032006903A
:101D600002A91A48FEF782FC03208002029012208A
:101D7000039001200490032005900120069002A901
:101D80001248FEF773FC07204003029002200390E4
:101D900000200490032005900020069002A90B4823
:101DA000FEF764FC002211460520FEF7E5FD052044
:101DB000FEF7D4FD07B000BD00100240E1030000B3
:101DC0000008004800001210000011100004004834
:101DD00010B500220F49104800F087FF002801D0FD
:101DE000FEF7EBFA0D490C4801F092FA002801D0F9
:101DF000FEF7E3FA0A49084800F0B3FB002801D0D7
:101E0000FEF7DBFA044801F06BFB002801D0FEF777
:101E1000D4FA10BD00000020FC010020900000203A
:101E20006000002070470000FEB50546D5E1286837
:101E300040308088029002980607360F002E70D13D
:101E4000102102980840002836D100BF296809886F
:101E5000E74A114008460121C90301432A6811805D
:101E600000BF2C46283428684030008A2178C900F9
:101E70004018801C0122920229688918405A800566
:101E8000800DE061E16960694018606100212846C9
:101E9000FEF7B4FD2420405D0028C7D0A0690028CB
:101EA000C4D12420405D80210843296840318881C5
:101EB00000212420415590E12C46FF342934286824
:101EC000008801900121C90201980840002829D00A
:101ED00028684030008A2178C9004018801D0122FE
:101EE000920229688918405A8005800DE061A08B14
:101EF00083B2E28828680090232000012918009806
:101F000002F022FB00BF29680988BA4A114008463E
:101F1000802101432A68118000BF2846FFF7E3F8BB
:101F20005BE185E00121C903019808400028C2D087
:101F300000BF29680988AF4A114008468021014343
:101F40002A68118000BF28684030008A2178C900C3
:101F50004018801D0122920229688918405A800584
:101F6000800DE061E069002812D0606900280FD080
:101F7000A08B83B2E28861692868009002F0E4FADD
:101F8000E16960694018606100212846FEF745FD5F
:101F900000BF29680091296840310A8A00995118C8
:101FA00000910122920200998918891D084600BFFC
:101FB0002269002A09D102888F4B1A4002800288C8
:101FC0000123DB031A4302801EE022693E2A0CD85B
:101FD00000BF22695108227CD207D20F002A00D00C
:101FE000491C8A06120C02800EE000BF22695109CA
:101FF000227CD206D20E002A00D1491E8A02012379
:10200000DB031A43028000BF00BF00BF00BF296886
:1020100009887A4A114008460121090348404900CD
:10202000484089000143802211432A681180D4E08E
:10203000B1002868405A01900121C9030198084065
:1020400000287DD000BFB2002968895A694A114032
:10205000084680210143B3002A68D15200BF7101B4
:102060002846FF3029300C18207B002817D128681B
:102070004030008A2178C9004018801D0122920258
:1020800029688918405A8705BF0D002F54D0E2886F
:10209000616928683B46009002F056FA4CE02178CE
:1020A00089002868405A012189030840002817D078
:1020B00028684030008A2178C9004018801C01221D
:1020C000920229688918405A8705BF0D002F1ED03B
:1020D0002289616928683B46009002F035FA16E0D3
:1020E00028684030008A2178C9004018801D0122EC
:1020F000920229688918405A8705BF0D002F06D023
:102100006289616928683B46009002F01DFA00BFB1
:1021100000BF227892002968895A354A80321140DE
:1021200008460121C9030143C022114323789B00C3
:102130002A68D15200BF00BFE069C019E06100E029
:1021400013E06069C0196061A069002802D02069AD
:10215000B84204D921782846FEF75FFC05E02178D3
:102160002846A3696269FEF72DFD80210198084089
:10217000002832D07101284628300C1800BFB20068
:102180002968895A1A4A114008460121C9030143A6
:10219000B3002A68D15200BF28684030008A2178F5
:1021A000C9004018801C0122920229688918405AEF
:1021B0008005800DE061E169606940186061A06997
:1021C000002804D121782846FEF718FC05E0217884
:1021D0002846A3696269FEF761FD2868403080885F
:1021E0000121C9030840002800D020E6FEBD000000
:1021F0000F8F00008F0F0000FF8300008FBF0000D3
:102200007047704710B5FEF743FB10BD10B500F0E6
:1022100001F810BD00B599B034210CA8FDF7D8FF26
:102220000020089009900A900B901C2101A8FDF74E
:10223000CFFF22200C9001200F90149010201090BE
:102240000220159081031691C10417910021189165
:102250000CA8FFF79FF9002801D0FEF7AEF8072081
:1022600008900220099000200A900B90012108A8F4
:10227000FFF74AF8002801D0FEF79FF8012040043C
:1022800001900020079001A8FEF76CFF002801D004
:10229000FEF793F819B000BD7047F8B504460D4637
:1022A0000520C0012018866B0520C0012018076C8E
:1022B0000520C0012018806B002829D01420684315
:1022C000214614314018806800281BD06A013B4623
:1022D0002833D218116914226A4323461433D218C2
:1022E0009068FDF705FF00290CD1142068432246B1
:1022F00014328018816000231A462946204600F0D7
:10230000DBFF03E000218520800081510020F8BD23
:102310000220FCE770B504460E460520C0012018D7
:10232000856B3146204600F02BFE83218900485101
:102330000520C0012018806B00280DD08121890064
:1023400048590521C9016118C96BCA6883218900F0
:1023500069189047002070BD0220FCE770B5044664
:102360000E4600258121204600F0F6FC0021E162A6
:102370000121204600F0F0FC0021FF206D300151CA
:102380008221204600F0E8FC002121640520C001E4
:102390002018806B002810D00521C9016118C96B75
:1023A000486880470521C9016118886B01F064FA0B
:1023B00000200521C90161188863284670BD00000E
:1023C00070B505460520C0012818846B0520C001A2
:1023D0002818C06B002813D001204002005DFF28A0
:1023E0000ED008490A5D491E085D0521C90169181A
:1023F000C96B8B6821469847FF2101204002015597
:10240000002070BD0102000001460A20088001483A
:1024100070470000840000200146432008800148E6
:10242000704700000C01002001464320088001484D
:1024300070470000C8000020014643200880014882
:102440007047000050010020F8B504460F460026F2
:10245000207C002812D101235B0202228121204628
:1024600000F007FE0121E1624B020222204600F04B
:1024700000FE0121FF206D30015110E040230222B7
:102480008121204600F0F5FD0121E1624023022276
:10249000204600F0EEFD0121FF206D3001510823A0
:1024A00003228221204600F0E4FD012121648720DF
:1024B000800001F0E3F90521C90161188863052056
:1024C000C0012018806B002801D1012623E00520DF
:1024D000C0012018856B0521C9016118C96B086806
:1024E00080470021852080004151001D4151207C02
:1024F000002808D1812080004259031F0121204675
:1025000000F0CFFD07E081208000425940230121E7
:10251000204600F0C6FD3046F8BD70B504460520E3
:10252000C0012018856B0520C0012018806B002891
:1025300015D0207C002808D1812080004259031F3B
:102540000121204600F0ADFD07E0812080004259C6
:1025500040230121204600F0A4FD002070BD022090
:10256000FCE702460220002904D00523DB01D31832
:10257000D9630020704702460520C0011018836B04
:1025800081208000C1500020704710B5034605200F
:10259000C0011818846B4120C000015121200001A6
:1025A0000251002010BDFEB505460C460520C001B5
:1025B0002818866B00210191009100272078602166
:1025C000084000282FD020286DD1E088002820D096
:1025D00020788021084000280ED0E288607805210C
:1025E000C9016918C96B8B6831469847E288314642
:1025F000284600F000F915E061780120400281557D
:10260000A179401C8155E2883146284600F0CFF878
:1026100008E060780521C9016918C96B00228B6840
:102620002146984745E06078002804D00A2814D055
:102630000B2830D123E00520C0012818007F032893
:1026400005D102226946284600F0D5F804E021466B
:10265000284600F0A0F8022723E00520C001281832
:10266000007F032805D1012201A9284600F0C3F804
:1026700004E02146284600F08EF8022711E00520EC
:10268000C0012818007F032804D02146284600F006
:1026900082F8022705E02146284600F07CF8022750
:1026A00000BF00BF05E02146284600F074F802276D
:1026B00000BF00BF3846FEBD70B505460520C0010D
:1026C0002818846B0520C0012818806B002818D0BA
:1026D000852080000059002811D10121852080002B
:1026E0000151001F01592963005B83B24120C000E2
:1026F00002598121284600F0DFFD002070BD012035
:10270000FCE70220FAE770B504460D460520C0013B
:102710002018406B2946426820469047002070BD33
:1027200070B504460D460520C0012018007F012821
:1027300004D0022803D003280ED101E000BF00BF5F
:102740006888012807D100200521C9016118486265
:10275000204600F063F804E02946204600F01BF80C
:1027600000BF00BF70BD70B506460C4615462B462F
:1027700022460021304600F094FC002070BD70B568
:1027800006460C4615462B4622460021304600F0F0
:1027900093FD002070BD70B504460D468021204693
:1027A00000F056FD0021204600F052FD70BD70B5CE
:1027B00004460E46154603200521C90161184861EB
:1027C000FF205D300551001D05512B46324600218A
:1027D000204600F066FC002070BD10B504460520C0
:1027E000C1016118486100231A461946204600F0CD
:1027F00058FC002010BD70B504460E461546022058
:102800000521C90161184861E56125622B46324600
:102810000021204600F050FD002070BD10B5044698
:1028200004200521C9016118486100231A46194690
:10283000204600F041FD002010BD000070B50546A7
:102840000C46002D05D12246054906A000F00FFADE
:1028500004E02246024903A000F009FA004870BDD6
:10286000C004002043444320436F6E666967000044
:102870000246122008800148704700001C0000201A
:1028800070B505460C46002D05D12246054906A027
:1028900000F0EDF904E02246024903A000F0E7F958
:1028A000004870BDC004002043444320496E746555
:1028B00072666163650000000246042008800148DA
:1028C000704700003000002070B505460C462246D7
:1028D000024903A000F0CBF9004870BDC0040020FD
:1028E00053616761526F626F746963730000000027
:1028F00070B505460C46002D05D12246054906A0B7
:1029000000F0B5F904E02246024903A000F0AFF957
:10291000004870BDC004002053616761526F626F50
:1029200074696373204D61696E5043422056435071
:102930000000000070B505460C461A202080FDF707
:102940003DFD014870BD00003400002070B5044614
:102950000D46E888012804D029462046FFF71BFFD2
:1029600020E00520C0012018007F012804D00228A3
:1029700003D0032810D109E000BF0020A06001228D
:10298000214608312046FFF736FF0AE00122211DCB
:102990002046FFF730FF04E029462046FFF7FBFE04
:1029A00000BF00BF70BDF8B504460E460020009081
:1029B0000027002570880012030001F022FE08F2B3
:1029C000050F28F2F2C9DCF2207C0521C90161184B
:1029D000096B0A68694690470746E9E0207C0028B1
:1029E0000AD10520C0012018406B816A68468847DB
:1029F00007460220787009E00520C0012018406BCE
:102A0000C16A68468847074602207870D0E0B078EF
:102A1000030001F0F6FD06041C344C647C94052090
:102A2000C0012018006B4068002809D0207C0521D7
:102A3000C9016118096B4A6869469047074605E075
:102A400031462046FFF7A7FE681CC5B27EE0052090
:102A5000C0012018006B8068002809D0207C052167
:102A6000C9016118096B8A6869469047074605E005
:102A700031462046FFF78FFE681CC5B266E0052090
:102A8000C0012018006BC068002809D0207C0521F7
:102A9000C9016118096BCA6869469047074605E095
:102AA00031462046FFF777FE681CC5B24EE0052090
:102AB000C0012018006B0069002809D0207C052186
:102AC000C9016118096B0A6969469047074605E024
:102AD00031462046FFF75FFE681CC5B236E0052090
:102AE000C0012018006B4069002809D0207C052116
:102AF000C9016118096B4A6969469047074605E0B4
:102B000031462046FFF747FE681CC5B21EE005208F
:102B1000C0012018006B8069002809D0207C0521A5
:102B2000C9016118096B8A6969469047074605E043
:102B300031462046FFF72FFE681CC5B206E031463D
:102B40002046FFF728FE681CC5B200BF00BF2FE07B
:102B5000207C002808D10520C0012018406B416B63
:102B600068468847074605E031462046FFF713FED2
:102B7000681CC5B21CE0207C00280AD10520C001D9
:102B80002018406B016B684688470746072078701D
:102B900005E031462046FFF7FEFD681CC5B207E0A0
:102BA000FFE731462046FFF7F6FD681CC5B200BFBF
:102BB00000BF002D00D0F8BD68460088002812D064
:102BC000F08800280FD0F08869460988884202DD25
:102BD0006846008800E0F088009069460A88394617
:102BE0002046FFF708FEF088002802D12046FFF7B4
:102BF00015FE00BFDFE70146002002E0421CD0B214
:102C0000491C0A78002AF9D1704770B504460D4670
:102C10000520C0012018007F012804D0022803D01D
:102C200003281DD101E000BF00BFE888022804D0BE
:102C300029462046FFF7AFFD17E00120E0600520A0
:102C4000C0012018406A002803D00221E068084330
:102C5000E060022221460C312046FFF7CCFD04E063
:102C600029462046FFF797FD00BF00BF70BDF8B5AD
:102C700004460D4617460026002C1ED02046FFF7BE
:102C8000BAFF4000801C38803A783046711CCEB2C2
:102C90002A5403223146701CC6B26A540AE02278D4
:102CA0003046711CCEB22A54641C00223046711C7E
:102CB000CEB22A5420780028F1D1F8BD0146002078
:102CC000002906D0012906D0022906D0032908D1FF
:102CD00005E0002007E0022005E0012003E00220DB
:102CE00001E0022000BF00BF704770B504460D46EA
:102CF0001646002C01D1022070BD0520C00120180D
:102D0000406B002804D000200521C90161184863E8
:102D1000002D03D00520C0012018056301200521E6
:102D2000C901611808772670204600F035F90020A7
:102D3000E2E7F8B504460D46002600270521C90143
:102D40006118086C2946FDF7AEFE06463046FFF7CF
:102D5000B5FF07463846F8BDF8B504460D460026CF
:102D600000270521C9016118086C2946FDF765FE99
:102D700006463046FFF7A2FF07463846F8BDF8B5CD
:102D800004460E461746002E7AD1254614350520F6
:102D9000C00120184069022852D12969E868884298
:102DA00010D92969E868401AE860A88982B23946D2
:102DB0002046FFF7E4FC00231A461946204600F09F
:102DC00070F94DE02969A868FDF792F900291BD137
:102DD0002969A868884217D30521C9016118A86824
:102DE0008969884210D2002211462046FFF7C7FCAD
:102DF00000200521C9016118886100231A4619467F
:102E0000204600F04EF92BE00520C0012018406B51
:102E1000C06800280CD00520C0012018007F0328BE
:102E200006D10520C0012018406BC16820468847A4
:102E30008021204600F00CFA2046FFF7CEFC0FE080
:102E40000520C00120184069042805D00520C001D4
:102E500020184069002803D18021204600F0F8F9AD
:102E60001520400120180078012821D1204600F0CB
:102E70005AFA0020152149016118087018E0FFE78F
:102E80000520C0012018406B406900280ED00520A5
:102E9000C0012018007F032808D10520C001201898
:102EA000406B314642692046904701E00220F8BD60
:102EB0000020FCE7F8B504460E461746002E45D123
:102EC0002546FF3555350520C001201840690328E7
:102ED0002CD12969E868884210D92969E868401A24
:102EE000E8602969E868884201D2E86800E028695A
:102EF00082B239462046FFF736FC3FE00520C0018C
:102F00002018406B006900280CD00520C001201853
:102F1000007F032806D10520C0012018406B0169FD
:102F2000204688472046FFF779FC27E00520C001AE
:102F300020184069052821D100200521C901611808
:102F400048610021204600F083F917E00520C00108
:102F50002018406B806900280ED00520C001201881
:102F6000007F032808D10520C0012018406B31469E
:102F700082692046904701E00220F8BD0020FCE76E
:102F800070B504460D460521C9016118086C294633
:102F9000FDF7C8FD70BD000010B504462548046764
:102FA00025480521C90161180864244822490860A0
:102FB0000820486002212048816001610021816170
:102FC000C1610162FDF78EFF002801D0FDF7F5F920
:102FD0000521C901611818230022086C1146FDF76C
:102FE000EEFC0521C901611858230022086C8021DC
:102FF000FDF7E5FC0521C9016118C0230022086C1A
:103000008121FDF7DCFC0521C9016118FF23113383
:103010000022086C0121FDF7D2FC0521C9016118CD
:10302000FF2301330022086C8221FDF7C8FC002039
:1030300010BD00004009002040070020005C004057
:1030400010B502460520C0011018036C802008400E
:10305000802806D14806040D1846283020188078AC
:1030600010BD4806040D1846FF302930201880781E
:10307000F6E7FEB504460F4615461E4600200190B1
:1030800000900521C90161182B463246086C39466B
:10309000FDF751FD01900198FFF710FE0090009898
:1030A000FEBDFEB504460D4616461F4600200190A3
:1030B00000900521C90161183B463246086C29463B
:1030C000FDF780FD01900198FFF7F8FD0090009852
:1030D000FEBD10B504464023002211462046FFF7EE
:1030E000C8FF0121FF20593001514021FF206530E8
:1030F00001514023002280212046FFF7BAFF012121
:10310000A1614021616201200521C9016118087790
:1031100000200521C9016118486160600521C901CD
:10312000611848620520C0012018806B002807D074
:1031300021790520C0012018406B42682046904745
:10314000002010BD01460520C0010818007F04289A
:1031500007D10520C0010818407F0522D2018A1836
:1031600010770020704710B504460520C0012018D4
:10317000007F03280DD10520C0012018406BC069D5
:10318000002806D00520C0012018406BC1692046E8
:103190008847002010BD0246117400207047F8B522
:1031A00004460D46002600270521C9016118086C58
:1031B0002946FDF777FF06463046FFF77FFD0746B5
:1031C0003846F8BD70B504460D4629465520C00066
:1031D000201800F089F801200521C9016118486113
:1031E0005520C0002018C0880521C90161188861D8
:1031F000152040012018007AC006C00E002804D017
:10320000012809D0022815D10DE05520C000211851
:10321000204600F06CF918E05520C0002118204627
:1032200000F0E4FA11E05520C0002118204600F01B
:10323000B2F90AE0152040012018007A80221040DF
:103240000146204600F004F800BF00BF002070BD1A
:10325000F8B504460D46002600270521C90161186E
:10326000086C2946FDF7D2FC06463046FFF726FDDE
:1032700007463846F8BD70B50446002500260521EE
:10328000C9016118086CFDF739FF05462846FFF7AC
:1032900015FD0646304670BD01460520C0010818E0
:1032A000007F0522D2018A18507704200522D2011E
:1032B0008A18107700207047FEB504460D46164662
:1032C0001F460020019000900521C90161183B466E
:1032D0003246086C2946FDF7E1FC01900198FFF7A2
:1032E000EDFC00900098FEBD0A7802704A784270AA
:1032F0008B78CA7812029A1842800B794A791202A6
:103300009A1882808B79CA7912029A18C280704703
:1033100002460020002904D00523DB01D31859639D
:1033200000E00220704701460020704770B5044657
:103330000D46A88800282CD1E888002829D1688863
:10334000802826D2A8784606760E0520C0012018CF
:10335000007F032804D129462046FFF71CFA1CE011
:103360000520C0012018867731462046FFF717FF59
:103370002046FFF753FA002E05D002200521C9018F
:103380006118087709E001200521C9016118087753
:1033900003E029462046FFF7FEF970BD70B50446EC
:1033A0000D4602260520C0012018406B00280AD0D7
:1033B0000520C0012018406B29460268204690472E
:1033C000002800D10026304670BD000070B50446CC
:1033D0000D46A8783A49087008460078012804DDAF
:1033E00029462046FFF7D7F968E00520C0012018DC
:1033F000007F022802D0032855D11FE03048007812
:10340000002817D02E480078606003200521C901EC
:10341000611808772A4801782046FFF7BFFF022885
:1034200004D129462046FFF7B6F970BD2046FFF7C4
:10343000F5F902E02046FFF7F1F93EE02048007878
:10344000002810D102200521C901611808771C4805
:10345000007860601A4801782046FFF754F920464A
:10346000FFF7DCF91EE0164909786068884216D03B
:1034700021792046FFF747F911480078606010482D
:1034800001782046FFF78AFF022804D1294620460A
:10349000FFF781F9C9E72046FFF7C0F902E02046AF
:1034A000FFF7BCF909E029462046FFF774F9044804
:1034B00001782046FFF727F900BF00BF00BFB4E73F
:1034C0008000002070B505460C466088012806D1B2
:1034D0000521C901691848622846FFF79FF970BDA8
:1034E00010B504462046FFF7C6FE002010BD70B59B
:1034F00005460C46002620786021084000280ED0A2
:10350000202802D040283ED100E000BF0520C001A5
:103510002818406B214682682846904738E060783A
:10352000030001F06EF80A1A24291F290B06291539
:10353000102921462846FFF736FA22E02146284680
:10354000FFF7F4FE1DE021462846FFF73FFF18E095
:1035500021462846FFF7FAF913E021462846FFF7EF
:1035600054FB0EE021462846FFF7ACFF09E0214658
:103570002846FFF7D5F804E021462846FFF70BF967
:1035800000BF00BF04E021462846FFF704F900BF52
:1035900000BF304670BDF8B505460E4600200090CD
:1035A000347930786021084000280ED0202802D0DD
:1035B000402870D100E000BF0520C0012818406BF2
:1035C00031468268284690470DE1307860210840F6
:1035D00020280AD10520C0012818406B3146826896
:1035E0002846904700900098F8BD7078002869D070
:1035F000012835D0032877D10520C0012818007F85
:10360000022802D0032824D111E0002C0AD0802CFB
:1036100008D021462846FFF71BFE80212846FFF7E9
:1036200017FE03E031462846FFF7B5F816E070882C
:1036300000280AD1002C08D0802C06D0F088002861
:1036400003D121462846FFF703FE2846FFF7E6F898
:1036500004E031462846FFF79EF800BF00BFBBE0FC
:103660000520C0012818007F022802D0032822D19B
:1036700012E0002C0AD0802C08D021462846FFF703
:10368000E7FD80212846FFF7E3FD03E031462846A9
:10369000FFF781F814E0A1E0708800280AD16006E5
:1036A000400E002803D021462846FFF742FB28465B
:1036B000FFF7B4F804E031462846FFF76CF800BF86
:1036C00000BF89E00520C0012818007F022802D031
:1036D000032875D125E0002C07D0802C05D0314679
:1036E0002846FFF758F870E071E0802020408028DD
:1036F00006D16006400E142148436918401807E0BF
:103700006006400E142148432946FF3155314018C8
:10371000074600203860022239462846FFF76BF83A
:1037200053E08020204080280DD12007000F142175
:103730004843691840184068002814D1314628468B
:10374000FFF729F841E02007000F142148432946DC
:10375000FF31553140184068002804D131462846D1
:10376000FFF719F831E080202040802806D160065C
:10377000400E142148436918401807E06006400EC7
:10378000142148432946FF31553140180746002C83
:1037900001D0802C02D1002038600AE02146284662
:1037A000FFF74EFC002802D00120386001E0002025
:1037B0003860022239462846FFF71DF805E0FFE78A
:1037C00031462846FEF7E7FF00BF00BF04E0314660
:1037D0002846FEF7E0FF00BF00BF04E03146284660
:1037E000FEF7D9FF00BF00BF0098FDE670B50546A3
:1037F0000C460026207860210840002806D02028AA
:1038000002D0402830D100E000BF00BF0520C00139
:103810002818007F012804D0022803D003281CD1D7
:1038200001E000BF00BF2079012811DC0520C001A4
:103830002818406B21468268284690470646E08853
:10384000002809D1002E07D12846FEF7E7FF03E044
:1038500021462846FEF79FFF04E021462846FEF752
:103860009AFF00BF00BF04E021462846FEF793FF01
:1038700000BF00BF002070BD704700000146014836
:1038800070470000B4090020F8B5024600200090FF
:1038900008788000105AFE4C20400346C878002863
:1038A00006D001280ED0022806D003280ED105E04C
:1038B0000120400203430CE000BF0AE00320400265
:1038C000034306E001208002034302E00120009050
:1038D00000BF00BF1846EF4C20430C78A4001053E3
:1038E00000BF0C78A400145BEB4D2C400D782C43EA
:1038F00020460124E403044380252C430D78AD00C9
:10390000545300BF087B00287DD1487800284ED052
:1039100000BF10465025AD5A28180D78ED0001263D
:10392000B6028619AC19CD886D106D00258000BFD8
:1039300000BF0C78A400105B40240440002C0FD082
:1039400000BF0D78AD00555BD34E35402C460125A8
:10395000ED032543C02635430E78B600955300BFCE
:1039600000BFC878012811D000BF0C78A400145BF8
:10397000C94D30352C40204620246040A402044329
:1039800080252C430D78AD005453B6E100BF0C7870
:10399000A400145BC04D30352C4020460124E403C4
:1039A000044380252C430D78AD005453A5E100BF9E
:1039B00010465025AD5A28180D78ED002D1D012612
:1039C000B6028619AC19CD886D106D00258000BF38
:1039D00000BF15465024A45A65190C78E400A41DB4
:1039E0000126B602AE19A419204600BF0E69002EAA
:1039F0000AD10688A94F3E40068006880127FF03AA
:103A00003E4306801FE04FE00E693E2E0CD800BFFB
:103A10000E6974080E7CF607F60F002E00D0641CA9
:103A2000A606360C06800EE000BF0E6974090E7CF7
:103A3000F606F60E002E00D1641EA6020127FF0333
:103A40003E43068000BF00BF00BF00BF0C78A4004B
:103A5000105B0124A4030440002C10D000BF0D789B
:103A6000AD00555B8C4E35402C460125ED032543BA
:103A70008126F60135430E78B600955300BF00BF8E
:103A800000BF0C78A400145B854D2C402046012417
:103A90002403604064006040A400044380252C435C
:103AA0000D78AD00545328E100BF0C78A400145BDE
:103AB000794D2C4020460124E4030443FF25813541
:103AC0002C430D78AD00545300BF00BF00BF00BFB2
:103AD00010465025AD5A28180D78ED000126B60283
:103AE0008619AC190D896D106D00258000BF00BFCF
:103AF00000BF00BF10465025AD5A28180D78ED00C4
:103B00002D1D0126B6028619AC194D896D106D0068
:103B1000258000BF00BF00BF4878002868D100BFE3
:103B20000C78A400105B0124A4030440002C10D0E6
:103B300000BF0D78AD00555B574E35402C46012532
:103B4000ED0325438126F60135430E78B6009553E3
:103B500000BF00BF00BF0C78A400105B40240440ED
:103B6000002C0FD000BF0D78AD00555B4A4E35409C
:103B70002C460125ED032543C02635430E78B600BB
:103B8000955300BF00BF00BF0C78A400145B424DEA
:103B90002C4020460124E4030443C0252C430D7827
:103BA000AD00545300BF00BF0C78A400145B3C4D23
:103BB0002C40204601242403604064006040A4009F
:103BC000044380252C430D78AD00545300BF00BF43
:103BD0000C78A400145B304D30352C402046012475
:103BE000E403044380252C430D78AD00545384E056
:103BF00000BF0C78A400105B0124A4030440002C37
:103C000010D000BF0D78AD00555B234E35402C46DB
:103C10000125ED0325438126F60135430E78B600D4
:103C2000955300BF00BF00BF0C78A400105B402478
:103C30000440002C0FD000BF0D78AD00555B164E30
:103C400035402C460125ED032543C02635430E782B
:103C5000B600955300BF00BF00BF0C78A400145BF2
:103C60000D4D2C4020460124E40304438125ED0141
:103C70002C430D78AD00545300BFC87801281CD0E8
:103C800000BF0C78A400145B034D30352C4009E0D4
:103C90008F890000808000008F8F0000FF8300006C
:103CA0008FBF0000204620246040A40204438025EA
:103CB0002C430D78AD0054530FE000BF0C78A400E6
:103CC000145B0F4D2C4020460124E403044380255F
:103CD0002C430D78AD00545300BF00BF0C78A400F6
:103CE000145B084D2C4020460124E4030443802546
:103CF0002C430D78AD00545300BF0098F8BD000070
:103D0000BF8F00008FBF000030B50246087B00283F
:103D100057D14878002829D000BF0B789B00D05A93
:103D200040230340002B0FD000BF0C78A400145B8D
:103D30008C4D2C4023460124E4031C43C0252C4316
:103D40000D78AD00545300BF00BF00BF0B789B003F
:103D5000D35A844C3034234018460123DB030343F9
:103D6000802423430C78A4001353F8E000BF0B78A1
:103D70009B00D05A01239B030340002B10D000BFAF
:103D80000C78A400145B774D2C4023460124E403F7
:103D90001C438125ED012C430D78AD00545300BF29
:103DA00000BF00BF0B789B00D35A6F4C23401846CE
:103DB0000123DB030343802423430C78A400135323
:103DC000CDE04878002864D100BF0B789B00D05A22
:103DD00001239B030340002B10D000BF0C78A400EC
:103DE000145B604D2C4023460124E4031C438125D1
:103DF000ED012C430D78AD00545300BF00BF00BF50
:103E00000B789B00D05A40230340002B0FD000BFFB
:103E10000C78A400145B534D2C4023460124E4038A
:103E20001C43C0252C430D78AD00545300BF00BF88
:103E300000BF0B789B00D35A4A4C234018460123FD
:103E4000DB030343C02423430C78A400135300BFB7
:103E500000BF0B789B00D35A434C234018460123E4
:103E6000DB030343802423430C78A400135300BFD7
:103E700000BF0B789B00D35A3A4C3034234018468D
:103E80000123DB030343802423430C78A400135352
:103E900065E000BF0B789B00D05A01239B030340D1
:103EA000002B10D000BF0C78A400145B2D4D2C40CB
:103EB00023460124E4031C438125ED012C430D78A6
:103EC000AD00545300BF00BF00BF0B789B00D05A19
:103ED00040230340002B0FD000BF0C78A400145BDC
:103EE000204D2C4023460124E4031C43C0252C43D1
:103EF0000D78AD00545300BF00BF00BF0B789B008E
:103F0000D35A184C234018460123DB030343812472
:103F1000E40123430C78A400135300BF00BF0B78C7
:103F20009B00D35A0F4C3034234018460123DB0347
:103F30000343802423430C78A400135300BF00BF25
:103F40000B789B00D35A084C234018460123DB030F
:103F50000343802423430C78A400135300BF0020A4
:103F600030BD00008F8F00008FBF00000146582039
:103F7000405A0122D2031043582250520020704769
:103F800010B5044601214020015300210153442073
:103F9000015350200153204600F0BEFA002010BD0E
:103FA0000146044A4020405A904340235852002082
:103FB0007047000080BF00000246002070470000EC
:103FC00030B50246087B00285FD1487800282DD004
:103FD00000BF0B789B00D05A40230340002B0FD02A
:103FE00000BF0C78A400145B294D2C40234601240B
:103FF000E4031C43C0252C430D78AD00545300BF8F
:1040000000BFC878012840D000BF0B789B00D35A6E
:104010001F4C303423401846202358409B02034352
:10402000802423430C78A40013532EE000BF0B78A8
:104030009B00D05A01239B030340002B10D000BFEC
:104040000C78A400145B124D2C4023460124E40399
:104050001C438125ED012C430D78AD00545300BF66
:1040600000BF00BF0B789B00D35A0A4C2340184670
:1040700001231B0358405B0058409B0003438024EE
:1040800023430C78A400135300BF002030BD000070
:104090008F8F00008FBF000010B5024648780028BF
:1040A00010D000BF0B789B00D35A104C2340184609
:1040B00010235840DB020343802423430C78A400E0
:1040C000135311E000BF0B789B00D35A084C2340D8
:1040D000184601231B035840DB000343802423437D
:1040E0000C78A400135300BF002010BDBF8F000048
:1040F0008FBF0000FEB506460C46607801287BD1D4
:104100002169A069884204D92569A069401BA06182
:1041100002E0A5690020A061207B002813D1ABB28A
:10412000E2883046616900F037FA00BF304650221D
:10413000925B10182278D200921C01239B02C318B4
:10414000D1180D80D6E020788000305A40210840F8
:10415000002852D000BF01966078002835D100BFFA
:1041600032465021895B8A182178C900891D0123B4
:104170009B02D318C918084600BF002D09D1038837
:10418000E24F3B40038003880127FF033B4303804A
:1041900019E03E2D0AD800BF6908EB07DB0F002BA2
:1041A00000D0491C8B061B0C03800CE000BF690982
:1041B000EB06DB0E002B00D1491E8B020127FF030B
:1041C0003B43038000BF00BF12E0607801280FD19D
:1041D0005020815B0198081801902078C000801D54
:1041E00001229202019989184018009000980580D8
:1041F00000BF608902904EE090E000BF6078002828
:1042000035D100BF32465021895B8A182178C90018
:10421000891C01239B02D318C918084600BF002D32
:1042200009D10388B94F3B40038003880127FF036E
:104230003B43038019E03E2D0AD800BF6908EB0715
:10424000DB0F002B00D0491C8B061B0C03800CE0FD
:1042500000BF6909EB06DB0E002B00D1491E8B0263
:104260000127FF033B43038000BF00BF10E06078DD
:1042700001280DD100BF30465022925B10182278E1
:10428000D200921C01239B02C318D1180D8000BFDD
:1042900000BF20890290ABB261693046029A00F0FB
:1042A0007BF900BF607800280FD100BF217889001A
:1042B000715A974A114008460121C9030143C0229F
:1042C000114322789200B15213E06078012810D196
:1042D00000BF21788900715A8D4A1140084601219A
:1042E000C90301438122D201114322789200B152C5
:1042F00000BF00BF00BF21788900715A844A303264
:1043000011400846102148402021484089020143BD
:104310008022114322789200B152F5E02169A06910
:10432000884204D92569A069401BA06102E0A56903
:104330000020A061207B002835D100BF32465021EB
:10434000895B8A182178C900891D01239B02D31833
:10435000C918084600BF002D09D103886B4F3B40A8
:10436000038003880127FF033B43038019E03E2DB0
:104370000AD800BF6908EB07DB0F002B00D0491CEF
:104380008B061B0C03800CE000BF6909EB06DB0EFB
:10439000002B00D1491E8B020127FF033B43038002
:1043A00000BF00BF9CE000BF00BF6078002835D18F
:1043B00000BF32465021895B8A182178C900891CC8
:1043C00001239B02D318C918084600BF002D09D14C
:1043D00003884E4F3B40038003880127FF033B4384
:1043E000038019E03E2D0AD800BF6908EB07DB0FF8
:1043F000002B00D0491C8B061B0C03800CE000BF77
:104400006909EB06DB0E002B00D1491E8B02012748
:10441000FF033B43038000BF00BF10E0607801282A
:104420000DD100BF30465022925B10182278D20086
:10443000921C01239B02C318D1180D8000BF00BF3E
:1044400000BF01966078002835D100BF3246502168
:10445000895B8A182178C900891D01239B02D31822
:10446000C918084600BF002D09D10388274F3B40DB
:10447000038003880127FF033B43038019E03E2D9F
:104480000AD800BF6908EB07DB0F002B00D0491CDE
:104490008B061B0C03800CE000BF6909EB06DB0EEA
:1044A000002B00D1491E8B020127FF033B430380F1
:1044B00000BF00BF12E0607801280FD15020815B5F
:1044C0000198081801902078C000801D01229202F6
:1044D00001998918401800900098058000BF00BF1E
:1044E00000BF21788900715A0A4A1140084601210B
:1044F0000903484049004840890001438022114394
:1045000022789200B15200BF0020FEBDFF83000060
:104510008F8F00008FBF00000146044A4020405AA0
:1045200010434023585200207047000080BF000015
:1045300010B50248FCF7D6FB10BD00004007002074
:1045400001464422505A7047FFB582B004465E08C7
:104550000196009403980126B602009CA6199519AD
:10456000019F07E02988AD1C0170401C0E0A0670EF
:10457000401C7F1E002FF5D1DE07F60F002E01D064
:104580002988017006B0F0BD0246002902D18023BF
:104590004C20835200207047FFB582B00446059E30
:1045A000761C76080196009403980126B602009CBA
:1045B000A6199719019B08E00578401C067831027E
:1045C00029433980BF1C401C5B1E002BF4D106B070
:1045D000F0BDF8B582B28BB2040C0D0C10465843F6
:1045E000002126465E43370C360480197941164671
:1045F0006E43370C36048019794126466E4389197B
:10460000F8BD30B47446641E2578641CAB4204D3F4
:10461000635D5B00E31830BC18471D46F8E70000F7
:1046200010B5002819DB1A4A03231B02D21883088D
:104630009B00D2588307DC0EFF23A3409A438B07CD
:104640001B0E8407E40EA3401A43114B03242402DB
:104650001B198408A4001A5118E00E4A03071B0F07
:10466000083B9B089B00D2588307DC0EFF23A34026
:104670009A438B071B0E8407E40EA3401A43054B95
:104680000407240F083CA408A4001A5110BD000020
:1046900000E100E01CED00E002E008C8121F08C1C4
:1046A000002AFAD170477047002001E001C1121FB3
:1046B000002AFBD17047014600200A78632A01D105
:1046C000012002E0732A00D1022070477FB5054621
:1046D0000C46002000900190029003906078000248
:1046E000A178084369460880E0788870002005E0DA
:1046F000225C00A903310A54411CC8B20828F7DB28
:10470000207B0002617B0843694688810E2228468F
:10471000FBF745FD7FBD00008CB0FCF7C5F8FDF749
:1047200079FDFDF7ADFAFDF753FBFDF78BFA30226B
:104730000EA16846FBF733FD17E001224021174820
:10474000FCF799F86846FBF74EFD84B221466846AF
:10475000FBF712FE6420FBF749FF002240210F48BF
:10476000FCF789F80E48FBF741FFE6E748656C6CFB
:104770006F2066726F6D20536167612053544D3313
:1047800032204D61696E20504342206275696C741D
:1047900020696E205553420D0A00000000080048B1
:1047A000AC260000F0B589B004460D462F683A46A5
:1047B00021460E48FBF7F3FC0C48FFF77CFF06464A
:1047C000012E0ED100200590069007900890074911
:1047D00001A8FFF77BFF01A80FC8089305AB07C32B
:1047E00002E0022E00D100BF09B0F0BDBC010020E4
:1047F00054657374696E672E2E2E0D0A000000003A
:104800000000000000000001020304060708090080
:1048100000000001020304003848000800000020E6
:1048200094010000380200080049000894010020AB
:10483000440E0000A84600081371281B08B9041A8A
:10484000C9041AF1041335291B083D081A81041301
:10485000120114020202164083044057260201028C
:104860000301071B040309041A031AC225117A085D
:10487000081B39035419041391021B085D084132C7
:1048800004291E1153127A130A0632022A40141BFD
:1048900049242812234C08A7252C1AC10C139B224B
:1048A0001B081508C11A29281A19041A39042A09DB
:1048B000041B0243A3111CC032095E1B01020B132F
:1048C0000524161001052401100901042402020523
:1048D0002406170107058203081C100904D9320AAF
:1048E0001D070501027B2C07058107110937442AA2
:1048F00040072A8107112B0907440A3B04440000A2
:04000005080000C12E
:00000001FF
