:020000040800F2
:1000000010150020D500000821160008691400080A
:1000100000000000000000000000000000000000E0
:10002000000000000000000000000000D7180008D9
:100030000000000000000000D5180008D9180008D2
:10004000E7000008E7000008E7000008E7000008F4
:10005000E700000869030008E7000008E70000085F
:10006000E7000008E7000008E7000008E7000008D4
:10007000E7000008E7000008E7000008E7000008C4
:10008000E7000008E7000008E7000008E7000008B4
:10009000E7000008E7000008E7000008E7000008A4
:1000A000E7000008E7000008E7000008E700000894
:1000B000E7000008E7000008E7000008ED2C000852
:1000C0000348854600F0AAF800480047952F00082D
:1000D000101500200448804704480047FEE7FEE76B
:1000E000FEE7FEE7FEE7FEE743190008C10000084F
:1000F00030B50B46014600202022012409E00D46C0
:10010000D5409D4205D31D469540491B2546954047
:1001100040191546521E002DF1DC30BDF0B51FB45C
:100120000646002082B005464024019100901BE065
:10013000019922460F46304600F020F8049A059BAC
:10014000801A994110D310461946224600F055F8FE
:10015000361A8F410197224601200021009F00F0AE
:100160004CF838184D4100902046641E0028DFDC12
:10017000019B00982946324607B0F0BD10B5202AF1
:1001800004DB0846203AD040002110BD0B46D34086
:10019000D0402024A21A91400843194610BD0346BE
:1001A0000B439B0703D009E008C9121F08C0042AAB
:1001B000FAD203E00B780370401C491C521EF9D29E
:1001C0007047D2B201E00270401C491EFBD270475A
:1001D0000022F6E710B513460A4604461946FFF713
:1001E000F0FF204610BD0321001D401E03781202BF
:1001F0001A43491EF9D51046704710B5202A04DB72
:100200000146203A9140002010BD914020239C1AC5
:100210000346E3401943904010BD0000064C012501
:10022000064E05E0E36807CC2B430C3C984710349E
:10023000B442F7D3FFF748FFC0300008E0300008B1
:1002400070B58C180578401C6B075B0F01D10378E3
:10025000401C2A1106D10278401C03E006780E707B
:10026000401C491C5B1EF9D12B0705D40023521EEC
:100270000DD40B70491CFAE70378401CCB1A921C72
:1002800003E01D780D70491C5B1C521EF9D5A1427C
:10029000D8D3002070BD000070B50C46042826DDC0
:1002A000144D202802D0212821D10FE00846FFF765
:1002B0009AFF0002E178000A0906084328602079C5
:1002C000287160796871A079A87110E02878207091
:1002D0002888000A60702868000CA0702868000E4A
:1002E000E0702879207168796071A87988710020A0
:1002F00070BD0000500000200020704710B50022A3
:100300000449054801F02EFC0449034801F020FC93
:10031000002010BD78090020B401002078060020DC
:1003200010B50146034801F013FC024801F0E9FB57
:10033000002010BDB40100200A4610B50849896BA1
:10034000FF31FF3102314969002901D0012010BD80
:100350000146044801F006FC024801F062FC10BDB1
:1003600034040020B401002010B5012000F0EAF8A8
:1003700010BD7047F8B5040005D025462035287813
:10038000002802D004E00120F8BD204600F07AF8F1
:100390002068016802229143016000F0A9F9012759
:1003A00006467F0404E000F0A3F9801B0A2811D858
:1003B000206840688007F6D4206801680122114354
:1003C000016000F095F906460AE000F091F9801B03
:1003D0000A2805D9606A3843606205202870D2E790
:1003E00020684068C007F0D0217E80200129216864
:1003F0000A683BD082430A60617E4020012921685F
:100400000A6835D082430A60A17E20200129216834
:100410000A682FD082430A60E17E102001292168FA
:100420000A6829D002430A60217F08200129216837
:100430000A6823D082430A60617F04200129216871
:100440000A681DD082430A60E168A06862690843B7
:100450002169114308436168491E08432168C86146
:1004600000206062012028700020F8BD0243C2E72E
:100470000243C8E70243CEE78243D4E70243DAE708
:100480000243E0E710B586B0044614216846FFF742
:100490009FFE1249206888421ED11148C26901217D
:1004A00049060A43C261C2690A4005924269C911FC
:1004B0000A43426140690840059003200002009011
:1004C0000220019000200290032003900420049059
:1004D0006946044800F042F806B010BD00640040D0
:1004E000001002400004004870B5044600F000F916
:1004F0000546601C02D004480078241800F0F8F883
:10050000401BA042FAD370BD680000201FB501282F
:100510000CD107A30FCB6C460FC401214902084838
:1005200000F0C8F80D216846FFF706FF1FBD000068
:1005300054657374696E672E2E2E0D0A000000003C
:100540000008004810B504494A69024202D04861D7
:10055000FFF7DCFF10BD000000040140F8B50023E8
:1005600093E0224601249C40A44622407ED04C6861
:10057000022C01D0122C0CD1DC08A40027183C6AF4
:100580005D07ED0E0F26AE40B4430E69AE40264324
:100590003E6205685E000324B4400F79A543BF079F
:1005A000BF0FB7402F4307604D68012D05D0022DC6
:1005B00003D0112D01D0122D0ED18568CF68A5432F
:1005C000B7402F43876047686546AF430D79ED0616
:1005D000ED0F9D403D434560C568A5438C68B44020
:1005E0002C43C4604C68E4004ED52B4CA569012611
:1005F0003543A561A4699D0834400094274CAD00A3
:100600002F19BC689D072E0F0F25B540AC43092557
:10061000ED06A84201D1002514E0214DA84201D1E8
:1006200001250FE01F4DA84201D102250AE01E4D11
:10063000A84201D1032505E01C4DA84201D10425A3
:1006400000E00525B5402543BD60194C25684E687E
:100650009543F60300D51543256065684E689543BC
:10066000B60300D515436560A56800E00CE04E6850
:100670009543F60200D51543A560E5684E6895439D
:10068000B60200D51543E5605B1C0A681446DA40E3
:1006900000D066E7F8BD00000010024000000140F5
:1006A0000004004800080048000C00480010004802
:1006B0000004014042690A4200D009048161704788
:1006C000002A01D08161704781627047024800684A
:1006D0000005000D704700000058014000487047B9
:1006E0000003070101480068000C704700580140F2
:1006F0000148806870470000680000200148C06A17
:100700007047000080F7FF1F0148006B7047000032
:1007100080F7FF1F0148406B7047000080F7FF1F04
:10072000024881680278891881607047680000205B
:1007300010B506480168102211430160002000F046
:1007400007F800F027F8002010BD0000002002404C
:1007500070B504460D4D7D202978C000FFF7C8FC18
:1007600001460B480068FFF7C3FC00F065FE002857
:1007700009D1042C07D200222146401E00F02AF89D
:1007800000206C6070BD012070BD0000680000207A
:100790007400002008B50848816901221143816175
:1007A000816911400091C26901040A43C261C069B4
:1007B0000840009008BD000000100240002805DB42
:1007C000C106C90E01208840014908607047000039
:1007D00000E100E010B502F0FDFA10BD10B54D23A8
:1007E0000122DB0001681A50132464010023001960
:1007F00003704031888A10438882888A022210431D
:100800008882184610BD704710B50C0604D54907FC
:10081000090E0818283003E049010818FF30293074
:1008200099B2002A06D0012202730181190C41817C
:10083000002010BD00220273C180F9E74A0112189E
:1008400010B5FF30FF300230D26B006F01F0A2FB19
:1008500010BD4A01121810B5FF30FF32FF300132CF
:100860000230D26B006F01F0F8FB10BD70B54B0782
:10087000CD095B0F5901091801220024002D02D077
:1008800028314A7002E0FF3129314C700B7011237E
:100890005B01C5182B7A012B06D02A72006802F082
:1008A00039F82C72002070BD022070BD70B50A07A7
:1008B0004368120F9A4201D9012070BD4B07CD0940
:1008C0005B0F5901091801220024002D02D02831A4
:1008D0004A7002E0FF3129314C708C700B7011238B
:1008E0005B01C5182B7A012B06D02A72006802F032
:1008F000ABF82C72002070BD022070BD4907090EB4
:100900000818FF300130406C7047F8B54F07CD092B
:100910007F0F7901091801260024002D02D028310B
:100920004E7002E0FF3129314C700F700A61CB70BC
:100930004A78002A00D0CF81022B00D10C711122FD
:10094000520185182A7A012A06D02E72006801F019
:10095000B7FE20462C72F8BD0220F8BD70B54D07D9
:100960000C466D0F69010918FF3129318B614A610D
:100970000022CA614A700D706207006802F0BEF87A
:10098000002070BDF8B504464A074068520F0D4676
:10099000824201D90120F8BDE90900270120002980
:1009A00004D0510109192831487004E0690109197E
:1009B000FF3129314F7088700A7011225201A61838
:1009C000327A012A06D03072206802F07BF868077C
:1009D00002D007E00220F8BD232109016118206838
:1009E00002F030F837720020F8BD70B54D070C46A4
:1009F0006D0F690109180B64CA6300224A64012261
:100A000028314A700D706207006802F077F8002004
:100A100070BDF8B50446006802F070F9000402D514
:100A2000204600F0FFFD206802F068F940050DD572
:100A300020684030818801229202914381802046C3
:100A400000F01AF90021204600F048F9206802F071
:100A500055F9400406D52068403081880122920370
:100A600091438180206802F049F9800406D520680E
:100A7000403081880122520391438180206802F036
:100A80003DF9C10413204001042608272518002938
:100A90001CDA206840300188B14301802068403072
:100AA0000188B94301802878012805D100202870E9
:100AB00001462046FFF7A7FE204600F0F1F8206827
:100AC000403081880122120391438180206802F026
:100AD00015F9000519D52068403001883943018097
:100AE0002068403081880122D202914381802068B1
:100AF0004030018831430180206802F0FFF8C04394
:100B0000C00402D5204600F01DF9206802F0F6F876
:100B100000060BD520684030818880229143818077
:100B2000287800281ED0204600F00CF9206802F03A
:100B3000E5F8800509D520684030818801225202FD
:100B400091438180204600F0C1F8206802F0D6F879
:100B5000C00506D5206840308188FF2201329143CC
:100B60008180F8BD206840300188314301802068D1
:100B700040300188394301800120287020684030CE
:100B8000808A3C2180080840992189000851012170
:100B90002046FFF738FEC9E7F0B585B0040007D05E
:100BA000112040012618707A0025002803D006E0A5
:100BB000012005B0F0BD3572204600F041F8032059
:100BC0007072206801F034FF002101270CE0480119
:100BD00000190246203257721172C186D5728563A0
:100BE000C563491CC9B2056460688842EFD8002219
:100BF0000EE0500100190146FF3121314D720A7299
:100C0000FF300130CD728563C563521CD2B20564DA
:100C100060689042EDD82146142210316846FFF7F3
:100C2000BEFA0FCC103C01F0F5FE2420055577727A
:100C3000E069012802D12046FFF7D0FD0020B8E787
:100C400008B500680A49884210D10A48C2690121E2
:100C5000C9050A43C261C0690022084000901146DC
:100C60001F20FFF7B7FD1F20FFF7A8FD08BD0000FC
:100C7000005C00400010024070B504468068012509
:100C8000022801D0FFF775FBFF34FF3402342946F8
:100C9000206F01F0D3FA206F01F091FA70BD0000CF
:100CA00010B504468069002806D00748016906226D
:100CB0009143016100F014FEFF34FF340234206FD1
:100CC00001F0A4FA10BD000000ED00E0FF3010B507
:100CD000FF300230006F01F0A3FA10BD10B51122F1
:100CE00052018418227A012A09D001222272242278
:100CF0001154006802F01AF80020207210BD022082
:100D000010BD10B5272109010A58232109014118F6
:100D1000104601F0A0FA10BD70B504461120400144
:100D20002518287A01280AD001202872206801F0AD
:100D300069FE206801F0D0FF0020287270BD0220FB
:100D400070BD000010B50446FF30FF300230006F68
:100D500001F0C5FAA069002804D003480169062201
:100D60001143016110BD000000ED00E0F8B504463C
:100D70000068434DC00352D5E8690026C00007D47F
:100D8000E96928040143E961E9690140012600910C
:100D90003C480168C90510D40168821511430160FF
:100DA000FFF7A6FC074604E0FFF7A2FCC01B64287F
:100DB00024D834480068C005F6D5286A03273F02C6
:100DC000384020D06168394081421CD0286A2A6AA4
:100DD000B843012109040A432A622A6A8A432A6223
:100DE0002862C0070FD0FFF783FC009008E0FFF7F0
:100DF0007FFC0099411A2448814201D90320F8BDA3
:100E0000286A8007F3D5286A6168B84308432862D6
:100E1000002E04D0E869012109078843E8612078A1
:100E2000C00705D0286BA1688008800008432863AC
:100E30002078800706D5286B032109048843E168E0
:100E4000084328632078800605D5286B1021884345
:100E50002169084328632068800305D5286B802119
:100E60008843A169084328632088400505D5286B7D
:100E7000402188436169084328630020F8BD0000D1
:100E8000001002400070004088130000F8B50F46C3
:100E900006005FD03D4D2868C007C00FB84209D298
:100EA000286840084000384328602868C007C00F01
:100EB000B8424FD13068364C81070CD5400704D575
:100EC000606807210902084360606068F021884378
:100ED000B168084360603078C0072CD07068012882
:100EE00010D0022811D0032812D0216889070029C8
:100EF00030DA61688908890001436160FFF7F8FB17
:100F0000009011E021688903F1E721688901EEE78B
:100F1000616BC903EBE7FFF7EBFB0099411A1D4832
:100F2000814201D90320F8BD60680C210840716836
:100F300089008842EFD12868C007C00FB8420BD99A
:100F4000286840084000384328602868C007C00F60
:100F5000B84201D00120F8BD3078400706D560685E
:100F6000072109028843F1680843606000F018F81F
:100F70006168094A0906090F515CC84007490860C1
:100F80000020FFF7E5FB0020F8BD00000020024034
:100F900000100240881300004C300008740000204C
:100FA00030B519A30FCB89B06C460FC41AA30FCB71
:100FB0000FC41D4A51680C200B4603401B48042BEC
:100FC00005D01B4D082B04D00C2B00D1284609B0AE
:100FD00030BD8B021B0F6C46E45CD26A04AB120777
:100FE000120FC9039A5C890F022901D0032901D08D
:100FF000002301E0002328460021FFF78FF8214657
:1010000001F0C2FEE3E70000020304050607080939
:101010000A0B0C0D0E0F1010010203040506070841
:10102000090A0B0C0D0E0F100010024000127A007E
:10103000006CDC02FEB5040070D02078F94EFA4D49
:10104000C00748D068680007800F01281FD0686873
:101050000007800F022804D16868C003800F0228AF
:1010600015D06168012919D001208004002901D020
:10107000052917D02968B14329602968814329606F
:10108000606800281BD0FFF733FB074613E0286891
:10109000800320D560680028CED01CE0286830434B
:1010A0002860EDE7296801432960F7E7FFF720FB97
:1010B000C01B642870D828688003F7D50BE0FFF7C1
:1010C00017FB074604E0FFF713FBC01B6428F1D8A9
:1010D00028688003F7D4207880073FD56868000728
:1010E000800F14D068680007800F022804D1686858
:1010F000C003800F01280AD0E068002828681ED0AD
:10110000012108432860FFF7F3FA07460CE028683E
:1011100080070CD5E068012800D108E080E1FFF7E6
:10112000E7FAC01B0228C5D828688007F7D52868C9
:10113000F82188432169C900084328600EE040086F
:1011400040002860FFF7D4FA074604E0FFF7D0FA22
:10115000C01B0228AED828688007F7D42078000783
:1011600023D5E0690028686A0FD00121084368622E
:10117000FFF7BEFA074604E0FFF7BAFAC01B0228E1
:1011800098D8686A8007F7D50FE040084000686289
:10119000FFF7AEFA074605E0C3E0FFF7A9FAC01B68
:1011A000022887D8686A8007F7D420780427400788
:1011B000002861DA00200190E869C00008D4E969DC
:1011C000B8060143E961E9690140012000910190FD
:1011D00096480168C90511D4016882151143016060
:1011E000FFF786FA009005E0FFF782FA0099401AAF
:1011F000642898D88D480068C005F5D5A0680128F6
:101200000AD0002801D0052811D0286A40084000E3
:101210002862286AB84302E0286A0121084328624C
:10122000A068002812D0FFF763FA00900AE0286A4D
:1012300038432862F0E7FFF75BFA0099411A7C48CF
:1012400081426ED8286A8007F5D50DE0FFF750FA85
:10125000009006E0FFF74CFA0099411A7448814269
:101260005FD8286A8007F5D40198002804D0E9697E
:10127000012000078143E9612078C00635D5606907
:1012800001280CD0401D686B24D038436863686B1C
:10129000400840006863FFF72BFA074622E0686BBE
:1012A00038436863686B012108436863FFF720FADD
:1012B000074604E0FFF71CFAC01B022831D8686B10
:1012C0008007F7D5686BF8218843A169C9000843F6
:1012D00068630AE0B8436863F4E7FFF709FAC01BE4
:1012E00002281ED8686B8007F7D42078800637D58F
:1012F00068680007800F032814D068680007800F13
:10130000022804D16868C003800F03280AD0206A2D
:101310000028686B16D030436863FFF7E9F906468A
:101320000CE062E0686BC0031AD5206A012877D10F
:1013300016E0FFF7DDF9801B022856D8686BC00362
:10134000F7D50DE0B0436863FFF7D2F9064604E035
:10135000FFF7CEF9801B022847D8686BC003F7D48B
:10136000606A002866D069680907890F022942D09F
:10137000012636060228286805D0B0432860FFF70A
:10138000B7F9044633E0B0432860FFF7B1F90746E8
:1013900004E0FFF7ADF9C01B022826D828688001B9
:1013A000F7D4E86A216B000900010843E862A16AEA
:1013B000E06A084369687B22D2039143084368606E
:1013C000286830432860FFF793F9044604E0FFF7EC
:1013D0008FF9001B022808D828688001F7D529E07A
:1013E000FFF786F9001B022801D90320FEBD2868FB
:1013F0008001F5D41EE00128F8D06868E96A03226C
:10140000D203A36A02409A420AD10907226B090F4C
:10141000914205D10F2189040840E16A884209D030
:101420000120FEBD000001000010024000700040DD
:10143000881300000020F4E7094910B5401E8842D7
:1014400001D9012010BD074C60610321081F01F084
:10145000C1FC0020A06107202061002010BD000019
:10146000FFFFFF0000E000E0FEE770B500231D462F
:101470000EE0040F0A2C02D25E00303401E05E0060
:1014800037348C555C00641800015B1C6570DBB25E
:101490009342EED370BD000010B50A4808490160C0
:1014A0001021416000218160C160016141610176CC
:1014B00041768176C17601774177FEF75BFF10BDFB
:1014C000006400408C010020F0B587B0142168460C
:1014D000FEF77EFE374842690121C9040A43426192
:1014E00042690A400592426989100A434261426991
:1014F0000A400592426949000A43426140692E4C04
:1015000008402E4D0590002221462846FFF7D8F8C6
:10151000009400240126019602946946284603940B
:10152000FFF71CF8062000902548019069460294B8
:101530002846FFF713F823480190092069460096D2
:101540000294C006FFF70AF8CC200090022703257A
:10155000092002946946019704950394C006FEF79A
:10156000FDFF02940095694617480197049503947E
:10157000FEF7F4FFA802009012200190029669463F
:10158000049603951048FEF7E9FF072040030090FA
:10159000029469460197039504940B48FEF7DEFF19
:1015A000002211460520FFF715F90520FFF706F97F
:1015B00007B0F0BD00100240E10300000008004841
:1015C00000001210000011100004004810B50022A5
:1015D0000F49104800F0B3FC002801D0FEF7C9FE07
:1015E0000D490C4800F0A2FE002801D0FEF7C1FE14
:1015F0000A49084800F0A2FA002801D0FEF7B9FE17
:10160000044800F0EFFE002801D0FEF7B2FE10BD46
:1016100000000020B40100205401002058000020E8
:1016200070470000FEB50446203001903AE18A88F8
:101630001607360F24D0B700C15B0291090472D59A
:10164000C15B9E4A114080221143C15370010519AC
:10165000FF352935287B002820687DD029788A002D
:10166000825A520479D55022125ACB00944912184A
:101670005918515A8905890D00916FD02A89C6E001
:10168000D2062DD401888F4A11400122D203114382
:10169000018020685021095A254628350A182878E3
:1016A000C10087480818105A8005800D6064E16BFE
:1016B0000818E06300212046FFF7C0F80198007980
:1016C0000028B3D0A8690028B0D101980179802002
:1016D0000143206840308181019800210171E1E0DF
:1016E0002546FF350288293513051DD5098A0918B5
:1016F0002878C2007248001D1018085A232183055B
:101700009B0DEB610901EA886118206801F0F9FA84
:1017100021680888694A10408022104308802046CA
:10172000FFF7EFFABEE099E01104D8D50188634ACB
:10173000114080221143018020685021095A604ED7
:1017400008182978361DC9008919405A83059B0D50
:10175000EB6112D0696902E039E04BE05BE00029FF
:101760000BD0EA88206801F0CCFAE9696869401872
:10177000686100212046FFF76CF820685021095A63
:10178000081881192869002807D03E2809D842087E
:10179000C00700D0521C90020BE008884A4A104053
:1017A00004E04209C00600D1521E90020122D20379
:1017B0001043088021680888444A1040012212031F
:1017C000504052005040424A104308806AE0502185
:1017D000095A3B4B0A1829781B1DC900C918515AD0
:1017E0008905890D009121D0EA886969009B01F083
:1017F00088FA1BE05022CB00125A31491218091DF9
:101800005918515A8905890D009104D06A8969696E
:10181000009B01F076FA297820688A00815A294BCA
:10182000803319402A4B403319438152E9690098AB
:101830000818E8616869009942186A61AB69002B71
:1018400003D029690098814204D929782046FFF7FE
:1018500000F803E029782046FFF780F80298000698
:1018600020D522687001D15B0019164B1940012365
:10187000DB031943D15321685022525A28305118A2
:1018800002780F4BD200D218895A8905890DC1619F
:1018900042695218426183690178002B20460AD0C0
:1018A000FFF7A3F82068014640318A88120400D56A
:1018B000BDE60020FEBDFEF7C1FFF3E78F0F00007D
:1018C000020400000F8F0000FF8300008FBF0000A4
:1018D000808000007047704710B5FEF721FF10BDF3
:1018E00030B599B034216846FEF772FC00240D949F
:1018F0000E940F941C2111A81094FEF769FC22206D
:101900000090012003900890022510200995049072
:10191000C0020A9040010B900C946846FFF78AFBC6
:1019200007200D900F9401210E9510940DA8FFF73C
:10193000ADFA28041190179411A8FFF717FA19B0FF
:1019400030BD7047F8B506460520C00130180D4679
:10195000846B016C002C1CD0142068438719F86933
:10196000002806D06A015118896BFEF7C1FB0029D7
:1019700006D0FF340020FF34023460610020F8BD3F
:10198000002003460246F8612946304600F0B0FCCC
:10199000F4E70220F8BD70B50522D2018518AC6BC2
:1019A00000F09CFBE11DFF31FA31C860A86B0028F4
:1019B00008D04868E96BCA6883218900611890479C
:1019C000002070BD022070BD70B504460026812144
:1019D00000F0D6FA002501212046E56200F0D0FA99
:1019E000FF206D3005518221204600F0C9FA052004
:1019F000C00125642418A06B002806D0E06B406865
:101A00008047A06B00F057FEA563304670BD0521EE
:101A100010B5C9014018C36B816B002B0AD0CC1DD7
:101A2000FF34FA342078FF2804D09B686278984706
:101A3000FF202070002010BD0A210180004870475F
:101A40007C0000204321018000487047CC0000202A
:101A50004321018000487047880000204321018015
:101A60000048704710010020F8B50546007CEF1DC6
:101A70000026F9370124002833D040230222812197
:101A8000284600F085FB4023EC6202220121284613
:101A900000F07EFB0823032282212846FC6600F02A
:101AA00077FB872080002C6400F006FE0521C90129
:101AB0006918886300281FD00446C86B00688047F7
:101AC000FF340020FF3402346061A061287C62682A
:101AD000002813D040230121284600F066FB304641
:101AE000F8BD01235B0202228121284600F050FB51
:101AF00001235B02EC62C8E70126F0E701235B02E9
:101B0000E9E7052110B5C9014118896B002913D0F7
:101B1000027C002A09D0FF31FF3102314A6840239C
:101B2000012100F042FB002010BDFF31FF310231E6
:101B300001235B024A68F3E7022010BD024602203F
:101B4000002904D00520C0011018C163002070478F
:101B50000522D2018018806BFF30FF3002304160D7
:101B6000002070470523DB01C018806BFF30FF3079
:101B700002300261816000207047FEB507460520F3
:101B80000C46C001391800206A468E6B1070908098
:101B9000054620786022024022D0202A3AD1E288ED
:101BA000002A16D0000607D5C96B60788B683146CD
:101BB0009847E288314626E0F01DFF306178FA3020
:101BC0000170A1794170E2883146384600F069F829
:101BD00025E0C96B60788B680022214698471EE09B
:101BE0006078002804D00A2808D00B2812D10EE013
:101BF000087F03280ED1022201A904E0087F0328F0
:101C000008D101226946384600F068F807E0087FED
:101C1000032804D02146384600F039F8022528462A
:101C2000FEBD052110B5C9014118896B002913D0EB
:101C3000FF31FF3102314A69002A01D0012010BD75
:101C400001224A610A6902630A8A93B28A68812181
:101C500000F04EFB002010BD022010BD052210B583
:101C6000D2018218526B52689047002010BD134673
:101C700010B50A46002100F098FA002010BD134666
:101C800010B50A46002100F033FB002010BD10B54E
:101C90000446802100F00FFB0021204600F00BFBE2
:101CA00010BD10B50524E401032304196361C31DAD
:101CB000F933DA651A6613460A46002100F075FA10
:101CC000002010BD052110B5CA0182180023516102
:101CD0001A46194600F069FA002010BD10B5052417
:101CE000E401022304196361C261134602620A46D9
:101CF000002100F0FDFA002010BD052210B5D20130
:101D000004218218002351611A46194600F0F0FAA6
:101D1000002010BD10B50A46024903A000F0E0F80B
:101D2000004810BD7804002043444320436F6E6692
:101D300069670000122008800048704720000020DA
:101D400010B50A46024903A000F0CAF8004810BDC9
:101D50007804002043444320496E746572666163D1
:101D60006500000004200880004870471C00002027
:101D700010B50A46024903A000F0B2F8004810BDB1
:101D80007804002053616761526F626F74696373F6
:101D90000000000010B50A46024903A000F0A0F8B8
:101DA000004810BD7804002053616761526F626F74
:101DB00074696373204D61696E50434220564350ED
:101DC0000000000010B51A2008800948046BC16AA1
:101DD000406B081809D008220649FFF746FB054961
:101DE000042210312046FFF740FB0248801E10BD40
:101DF00080F7FF1F36000020F8B50D46044600208E
:101E000069460880698805200A0AC0012018130065
:101E100000F0D2FF0844050B184444384144006BDD
:101E2000237C02686946184617E0217C0226406B35
:101E3000002905D0C16A684688470146467039E0E6
:101E4000816AF8E7C9B20B0000F0B6FF060409107A
:101E500013161928006B426803E0904719E0006BE5
:101E60008268002A1AD0207C6946F6E7006BC268B7
:101E7000F7E7006B0269F4E7006B4269F1E7006B7A
:101E80008269EEE7217C002908D1406B416B6846EE
:101E9000884701460EE0217C002904D029462046CF
:101EA000FFF7F5FEF8BD406B016B684688470722D7
:101EB000014642706846008800280AD0EA88002A55
:101EC0000AD0824200D90246684602802046FFF7C7
:101ED00005FFE8880028E5D12046FFF70EFFF8BD92
:101EE00070B5002300281DD00446002502E06D1CBB
:101EF000EDB2641C2678002EF9D16C00A41C14806D
:101F00001278CA5403225B1CCA5400245B1C06E0EE
:101F1000CA545B1CDAB28C54521CD3B2401C0278F7
:101F2000002AF5D170BD01460020002904D0012906
:101F300001D0022901D0022070470120704710B55E
:101F4000002811D00523DB01C3185C6B002C01D0E5
:101F500000245C63002900D0196301211977027005
:101F600000F0C4F8002010BD022010BD052210B5FD
:101F7000D2018018006CFEF799FCFFF7D4FF10BD6A
:101F8000052210B5D2018018006CFEF76FFCFFF738
:101F9000CAFF10BDF8B506460520C0013418134627
:101FA000002908D0606B4269002A02D0207F0328F4
:101FB0004FD00220F8BD354660691435022804D0A0
:101FC000042839D0002837D03AE02F69E868B842B1
:101FD00007D9C01B82B2E86019463046FFF74FFEB2
:101FE00012E0AD6839462846FEF782F8002912D182
:101FF000BD4210D3A06985420DD200221146304661
:10200000FFF73DFE0020A06100231A461946304626
:1020100000F0CBF814E0606BC168002904D0207F89
:10202000032801D1304688478021304600F043F92B
:102030003046FFF747FE03E08021304600F03BF9D1
:102040001520400130180178012904D100210170C8
:1020500001E0304690470020F8BD70B505460520E8
:10206000C0012B181646002908D0586B8269002A37
:1020700002D0187F03282DD0022070BD2C46FF34DB
:1020800058695534032802D005281CD024E0E168A3
:10209000206981420AD90B1AE360834200D30346C8
:1020A0009AB231462846FFF7E2FD15E0586B016908
:1020B000002904D0187F032801D1284688472846E4
:1020C000FFF71BFE08E0002001465861284600F09B
:1020D000F2F801E028469047002070BD052210B5B7
:1020E000D2018018006CFEF709FC10BD10B51D4927
:1020F00005220867D20184181B491C482164086026
:102100000820486002208860086100208861C8615A
:1021100008620846FEF740FD002801D0FEF729F9C5
:10212000002218231146206CFEF76EFB5823002274
:102130008021206CFEF768FBC02300228121206CE7
:10214000FEF762FBFF23113300220121206CFEF712
:102150005BFBFF23013300228221206CFEF754FB3E
:10216000002010BD98100020980E0020005C004058
:102170000523DB01CA09C0184906006C090D0818BF
:10218000002A01D0203001E0FF302130807A7047F2
:1021900010B51C460523DB01C0181346006C22460F
:1021A000FEF7B3FBFFF7BFFE10BD10B50524E40139
:1021B0000019006CFEF7D2FBFFF7B5FE10BD70B53D
:1021C0000022044640231146FFF7E2FFE01D4026AF
:1021D000F930012546668565334600228021204678
:1021E000FFF7D6FF0520C00166622018A5610577BC
:1021F0000021416161604162816B002904D0406B24
:102200000021426820469047002070BD0521C90189
:102210004018017F042901D1417F017700207047D8
:10222000052110B5C90141180A7F032A04D1496B61
:10223000C969002900D08847002010BD0174002022
:102240007047052210B5D2018018006CFEF746FDDC
:10225000FFF769FE10BD70B505465520C00028186F
:10226000044600F04FF80520C00101212818416103
:10227000C18D8161152040012818007AC106C90E60
:102280000AD001290DD0022910D0C109C901284660
:1022900000F011F8002070BD2146284600F0A7F894
:1022A000F8E72146284600F0DCF9F3E72146284606
:1022B00000F022F9EEE7052210B5D2018018006C7B
:1022C000FEF760FBFFF72FFE10BD052110B5C90119
:1022D0004018006CFEF720FDFFF725FE10BD05211C
:1022E000C9014018017F4177042101770020704720
:1022F00010B50524E4010019006CFEF776FBFFF72A
:1023000012FE10BD0A7802704A784270CB788A7843
:102310001B02D21842804B790A791B02D2188280A4
:102320008A79C97909025118C18070470246002094
:10233000002904D00523DB01D21851637047022025
:102340007047052210B5D2018218526B0224002A70
:1023500004D012689047002800D10024204610BD08
:1023600070B50E4689781E4C05462170012904D9A6
:1023700031462846FFF78BFC70BD0520C0012818A8
:10238000027F022A0AD0032A0ED031462846FFF7E0
:102390007EFC21782846FFF761FC70BD002913D030
:1023A0000322696002770AE0002911D06868884238
:1023B0000AD0C1B22846FFF751FC2178696028464F
:1023C000FFF7BFFF0228D3D02846FFF796FC70BD69
:1023D0000222027728466960FFF740FCF4E700001C
:1023E0007800002010B5FFF770FF002010BDF8B591
:1023F000002200920A7860231A400523DB01C518E9
:10240000002A07D0202A01D0402A6AD16A6B92683C
:10241000904768E04C7800220126230000F0CCFCB5
:102420000A3F5A6155610906612C2961FFF7E4FCF6
:1024300059E004468888002819D1C888002816D198
:102440004888802813D24706287F7F0E03280ED0A5
:10245000AF7739462046FFF7F4FE2046FFF74DFCE4
:10246000002F02D0022028773DE02E773BE0204667
:1024700037E0FFF775FF36E0CB88012B31D12B7F9A
:10248000012B04D0022B02D0032B2AD104E082605E
:1024900001220146083115E00122011D12E02A7FC8
:1024A000012A03D0022A01D0032A1AD1CA88022A9B
:1024B00017D1C660696A002901D00321C1600146B5
:1024C00002220C31FFF70AFC0DE0498801290AD1EC
:1024D0006E620EE02B7F012B07D0022B05D0032B61
:1024E00003D0FFF7D4FB0098F8BD49880129FAD141
:1024F0006A62FFF702FCF6E7F8B50A46137804466D
:1025000060201D4605400520C001002709792018DC
:10251000002D09D0202D01D0402D77D1406B1146E0
:102520008368204698479AE05B069B0F012B07D0F3
:102530005378002B3BD0012B2BD0032B66D105E029
:10254000406B1146836820469847F8BD007F0228FB
:1025500002D003287FD10BE000297CD080297AD0DB
:102560002046FFF7A8FE80212046FFF7A4FE76E074
:102570005088002809D1002907D0802905D0D088AB
:10258000002802D12046FFF796FE2046FFF7B5FB54
:1025900065E0007F0228DFD003285CD15088002846
:1025A0005DD14806F1D02046FFF7E0FCEDE7007F63
:1025B0000026022802D003284DD116E0002901D0C0
:1025C000802948D1C80906D04806400E1421484346
:1025D0000119143106E04806400E14214843011940
:1025E000FF31553102220E6031E0C8090FD00807D3
:1025F000000F142358430019806900282BD0480687
:10260000400E142250430519143511E023E0080749
:10261000000F142358430019FF300130806D00284B
:1026200019D04806400E142250430519FF35553580
:10263000002909D0802907D02046FFF799FD0028FE
:1026400002D00120286000E02E60022229462046A8
:10265000FFF744FB03E011462046FFF718FB38461E
:10266000F8BD70B505460C4608786021084003D0D7
:10267000202801D0402818D10520C0012818017F4A
:10268000012903D0022901D003290ED12179012982
:102690000BD8406B2146826828469047E188014369
:1026A00007D12846FFF729FB03E021462846FFF71C
:1026B000EEFA002070BD704700487047780C00208B
:1026C000F0B5002294460A789400035B8A4A1340CE
:1026D000CA78002A62D0012A67D0022A03D0032ACE
:1026E0005FD001229446854A134303530D78AE0010
:1026F000845B834B1C402C4314438453804D0E7BDE
:10270000044630354034002E52D00E78B700C65BF8
:10271000BE467C4F1E403E437746C653268A0F78FE
:102720003618FF00BF190126B602BE190F897F08AF
:102730007F003780248A0E782418F6003619541149
:1027400034194E897608760026804C78002C0C7857
:1027500076D0A600845B640404D5845B6A4F1C4079
:102760003C4384530C78A600845B640605D5845BE7
:10277000624F1C4040373C4384530C78A600845B76
:102780001C40614B1C438453CB78012B0B7879D0D0
:102790009C00035B2B4020256B40A1E001225202EC
:1027A00001E00322520213439DE701229202FAE75D
:1027B0004E78002E24D0248A0E782418F60036197C
:1027C0000124A4023419CE887608760026800C787D
:1027D000A600845B640605D5845B1C40474B4033F0
:1027E0001C438453CB78012B05D009788B00C15A48
:1027F0002940202444E009788B00C15A294077E021
:10280000258A0E782D18F6007619404D7519CE8858
:10281000760876002E80248A0D782418ED002C1975
:102820003A4D0127AD1C65190C69FF03002C08D037
:102830003E2C0AD86608E40700D0761CB4020AE0F1
:1028400021E02C88324E344004E06609E40600D1D1
:10285000761EB4023C432C800C78A500445B6404D3
:1028600004D5445B1C40284B1C43445309788B001F
:10287000C15A254CF13C21400124240361406400ED
:10288000614035E029E0A600845B640404D5845BE4
:102890001D4F1C403C4384530C78A600845B6406A7
:1028A00005D5845B154F1C4040373C4384530C785E
:1028B000A600845B1C40114B40331C4384530B78AF
:1028C0009C00035B104EF13E3340012636037340FB
:1028D00076007340134303538DE79C00035B2B404A
:1028E0001343035309788B00C15A074CF13C214034
:1028F0001143C1526046F0BD8F8900008080000006
:102900008F8F00008081000080C000000404000060
:10291000FF830000F0B50A780F7B374B4E78374DB8
:10292000374C9200002F22D0002E865A41D07604D8
:1029300003D5865A26402E4386520A789600825B3B
:10294000520605D5825B2C4F224040373A438253D2
:102950000A789600825B22402A4382530A789400C8
:10296000025B274D30352A401A43025317E0002EF0
:102970000ED0855A6D0605D5855A25401E4C40342B
:102980002543855209788A00815A1D4C30340BE06A
:10299000865A760403D5865A26402E4386520978F5
:1029A0008A00815A154CF13C214019438152002084
:1029B000F0BD760403D5865A26402E4386520A7807
:1029C0009500425B520605D5425B0B4E22404036D5
:1029D000324342530A789500425B2240064C403411
:1029E000224342530A789400025B044DF13D2A4091
:1029F0001A430253C6E700008080000080C0000038
:102A00008F8F00004030018B0122D20311430183DC
:102A10000020704700B50122014640310A800022A3
:102A20000A808A800A8200F057F9002000BD000069
:102A30004030034902888A4302800020704700002A
:102A400080BF00000020704730B50A7B002A30D1DB
:102A50004A78194D002A194B0A7814D09400025B69
:102A6000520605D5025B2A40144D40352A430253D5
:102A7000CA78012A1DD009788A00815A0E4C303458
:102A80002140202412E09400025B520404D5025B32
:102A90002A400B4D2A43025309788A00815A084C78
:102AA000F13C21400124240361406400614019434A
:102AB0008152002030BD00008F8F00008080000018
:102AC00080C0000010B54A780978094B8900002AB7
:102AD000425A03D0074C2240102403E0064C224007
:102AE0000124240362401A434252002010BD00001A
:102AF00080800000BF8F00008FBF0000F0B50E4641
:102B000005464A782F460023097B40373469B0696F
:102B1000012A04D0A04254D9001BB06153E0A04266
:102B200002D9001BB06101E00446B36100290DD059
:102B300030788100695A4906398A17D54919C00089
:102B40004118604808180480728917E0A3B2F2881F
:102B50002846716900F0F1F8388A31784019C900C7
:102B600009185848001F0818048020E04919C000BF
:102B700041185448001F081804803289A3B228461F
:102B8000716900F0DAF870784F49002802D0012806
:102B900006D00CE030788200A85A08404B4904E087
:102BA00030788200A85A084049490843A852307832
:102BB0008100685A444A303210401022504020228E
:102BC00079E00446B3610120C003002902D0002A45
:102BD0001ED02FE0398A32784919D200521839496B
:102BE0005118002C08D03E2C0AD86008E20700D00B
:102BF000401C8002088054E00A88364B1A4004E0EA
:102C00006209E30600D1521E920202430A8048E0A4
:102C1000398A32784919D20052182A49091F5118A5
:102C2000002C0DD03E2C0FD86208E30700D0521CB8
:102C300092020A80717800290DD0012929D030E054
:102C40000A88244B1A4004E06209E30600D1521EB0
:102C500092020243EDE7398A32784919D2005218BC
:102C600018495218002C08D03E2C0AD86008E107F9
:102C700000D0401C8002108013E01188154B1940D1
:102C800004E06109E30600D1491E89020143118075
:102C900007E0398A48193178C90009180948081825
:102CA000048030788100685A094AF13A10400122C4
:102CB0001203504052005040044A403A10436852B8
:102CC0000020F0BD060400008F8F0000C0800000CF
:102CD00080C00000FF8300004030034902880A439F
:102CE000028000207047000080BF000010B502483D
:102CF000FDF78FFE10BD0000980E00204030808848
:102D00007047801810B5012292025C088018002CD0
:102D100007D002880A70120A4A70801C891C641E3F
:102D2000F7D1DA0701D00088087010BD002902D160
:102D300080214030818100207047801801225B1C77
:102D4000920210B55B088018002B08D04A780C78E6
:102D5000120222430280801C891C5B1EF6D110BD2A
:102D60000FB410B504A9074B02AA039800F064F849
:102D7000044602A9002000F007F9204610BC08BC58
:102D800004B01847892F0008F8B5040C8BB226460A
:102D900082B25E430D0C1046370C5843360480193E
:102DA0000021794116466E43370C3604801979416B
:102DB00026466E438919F8BD30B47446641E2578E2
:102DC000641CAB4200D21D46635D5B00E31830BC5F
:102DD000184700008307FF22DB0E9A408907090E7F
:102DE0009940002808DB830809489B001B181868D5
:102DF00090430843186070470007000F08388308A5
:102E000004489B001B18D86990430843D861704759
:102E100000E400E000ED00E002E008C8121F08C175
:102E2000002AFAD170477047002001E001C1121F4B
:102E3000002AFBD170470000FFB58DB00446002585
:102E400006E025280AD0109A0F999047641C6D1C43
:102E500020780028F5D1284611B0F0BD00270121C7
:102E6000484A009700E00743641C23780846203B4B
:102E700098401042F7D120782E2817D1042007431C
:102E80006078641C2A280CD10E98641C02C800913A
:102E90000E900BE000990A22514330394018641C0F
:102EA00000902078014630390929F3D9207800288C
:102EB000D1D0642808D0692806D075281ED0109A71
:102EC0000F9990476D1C5BE00A200E99019001C993
:102ED0000E91002802DA40422D2102E0390504D586
:102EE0002B216A461172012103E0F90704D0202149
:102EF000F7E70BAE0B910DE00021FAE70A200E99DF
:102F0000019001C90E91F7E70199FDF7F1F8303111
:102F1000761E31700028F7D103A8801B2030019065
:102F2000780701D5009801E00120009001998842BE
:102F300001DD401A00E000200027009006E002A812
:102F4000109AC05D0F9990476D1C7F1C0B988742AB
:102F5000F5DB04E0109A30200F9990476D1C009922
:102F6000481E00900029F5DC05E03078109A761CA8
:102F70000F9990476D1C0199481E01900029F4DCBF
:102F8000641C65E7092801000A68531C0B60107077
:102F900070470000CEB0FDF7CBFBFEF7A1FCFEF7BB
:102FA00093FAFEF713FBFEF777FA20221DA145A83E
:102FB000FDF7F5F8FDF792FB0590FDF793FB049004
:102FC000FDF784FB0446FDF799FB0546FDF79CFBE6
:102FD0000646FDF79FFB0746FC2106A8FDF7F8F81B
:102FE0006846F0C0174906A8049B059AFFF7B8FE8B
:102FF0007D25154C2D01AE00012240212046FDF714
:103000005FFB202145A8FDF797F92846FDF76CFAEC
:10301000002240212046FDF753FB3046FDF764FABD
:10302000EAE7000048656C6C6F2066726F6D205394
:103030006167612053544D3332204D61696E2050D9
:1030400043420D0A5C300008000800480000000000
:1030500000000000010203040607080953544D3321
:1030600032463037320D0A48414C2056657273693A
:103070006F6E3A2025640D0A48414C205265763A1D
:103080002025640D0A48414C204465763A20256489
:103090000D0A48414C20554944313A2025640D0A17
:1030A00048414C20554944323A2025640D0A484194
:1030B0004C20554944333A2025640D0A0000000095
:1030C000E0300008000000208C01000040020008F1
:1030D000A43100088C01002084130000282E000871
:1030E00013351D1B0865041A71041A95041AC504CA
:1030F0001A15041A410417040309041201140202E8
:1031000002164083044057260201020301031B1AE2
:10311000031AC22111120813FD021B08F9041A999F
:10312000041321032A0816820453127A130A063262
:10313000022A401C1C0902435F111CC03209261BD5
:1031400001020B13052416100105240110090104C6
:10315000240202052406170107058203081C100932
:103160000495320A1D07050102432C070581070952
:1031700038442A40072A8107112B0907440A3B04D7
:103180004413691A1408C91914087B1B42081A0F42
:10319000101A45101A9704C12A511819041A5D040F
:0431A0001A390400D4
:04000005080000C12E
:00000001FF
